{
  "contractName": "AccessControlWithOwner",
  "abi": [
    {
      "anonymous": false,
      "inputs": [
        {
          "indexed": true,
          "internalType": "address",
          "name": "previousOwner",
          "type": "address"
        },
        {
          "indexed": true,
          "internalType": "address",
          "name": "newOwner",
          "type": "address"
        }
      ],
      "name": "OwnershipTransferred",
      "type": "event"
    },
    {
      "anonymous": false,
      "inputs": [
        {
          "indexed": true,
          "internalType": "bytes32",
          "name": "role",
          "type": "bytes32"
        },
        {
          "indexed": true,
          "internalType": "bytes32",
          "name": "previousAdminRole",
          "type": "bytes32"
        },
        {
          "indexed": true,
          "internalType": "bytes32",
          "name": "newAdminRole",
          "type": "bytes32"
        }
      ],
      "name": "RoleAdminChanged",
      "type": "event"
    },
    {
      "anonymous": false,
      "inputs": [
        {
          "indexed": true,
          "internalType": "bytes32",
          "name": "role",
          "type": "bytes32"
        },
        {
          "indexed": true,
          "internalType": "address",
          "name": "account",
          "type": "address"
        },
        {
          "indexed": true,
          "internalType": "address",
          "name": "sender",
          "type": "address"
        }
      ],
      "name": "RoleGranted",
      "type": "event"
    },
    {
      "anonymous": false,
      "inputs": [
        {
          "indexed": true,
          "internalType": "bytes32",
          "name": "role",
          "type": "bytes32"
        },
        {
          "indexed": true,
          "internalType": "address",
          "name": "account",
          "type": "address"
        },
        {
          "indexed": true,
          "internalType": "address",
          "name": "sender",
          "type": "address"
        }
      ],
      "name": "RoleRevoked",
      "type": "event"
    },
    {
      "inputs": [],
      "name": "ADMIN_ROLE",
      "outputs": [
        {
          "internalType": "bytes32",
          "name": "",
          "type": "bytes32"
        }
      ],
      "stateMutability": "view",
      "type": "function"
    },
    {
      "inputs": [],
      "name": "CUSTOMER_ROLE",
      "outputs": [
        {
          "internalType": "bytes32",
          "name": "",
          "type": "bytes32"
        }
      ],
      "stateMutability": "view",
      "type": "function"
    },
    {
      "inputs": [],
      "name": "DISTRIBUTOR_ROLE",
      "outputs": [
        {
          "internalType": "bytes32",
          "name": "",
          "type": "bytes32"
        }
      ],
      "stateMutability": "view",
      "type": "function"
    },
    {
      "inputs": [],
      "name": "MANUFACTURER_ROLE",
      "outputs": [
        {
          "internalType": "bytes32",
          "name": "",
          "type": "bytes32"
        }
      ],
      "stateMutability": "view",
      "type": "function"
    },
    {
      "inputs": [],
      "name": "SUPPLIER_ROLE",
      "outputs": [
        {
          "internalType": "bytes32",
          "name": "",
          "type": "bytes32"
        }
      ],
      "stateMutability": "view",
      "type": "function"
    },
    {
      "inputs": [],
      "name": "TRANSPORTER_ROLE",
      "outputs": [
        {
          "internalType": "bytes32",
          "name": "",
          "type": "bytes32"
        }
      ],
      "stateMutability": "view",
      "type": "function"
    },
    {
      "inputs": [],
      "name": "WHOLESALER_ROLE",
      "outputs": [
        {
          "internalType": "bytes32",
          "name": "",
          "type": "bytes32"
        }
      ],
      "stateMutability": "view",
      "type": "function"
    },
    {
      "inputs": [],
      "name": "owner",
      "outputs": [
        {
          "internalType": "address",
          "name": "",
          "type": "address"
        }
      ],
      "stateMutability": "view",
      "type": "function"
    }
  ],
  "bytecode": "0x608080604052346100165761026d908161001b8239f35b5f80fdfe608060408181526004361015610013575f80fd5b5f91823560e01c908163204d7923146101fd575080634eabbe77146101c357806375b238fc146101895780638da5cb5b14610162578063965288b014610128578063a29508fc146100ee578063d7cb8d34146100b45763f0bd87cc14610077575f80fd5b346100b057816003193601126100b057602090517ffbd454f36a7e1a388bd6fc3ab10d434aa4578f811acbbcf33afb1c697486313c8152f35b5080fd5b50346100b057816003193601126100b057602090517fe34aaecbfe1f40867dcba8678fbed9f4ffa5782221fa3bb500b71b2a804303188152f35b50346100b057816003193601126100b057602090517fd1ae8bbdabd60d63e418b84f5ad6f9cba90092c9816d7724d85f0d4e4bea2c608152f35b50346100b057816003193601126100b057602090517feefb95e842a3287179d933b4460be539a1d5af11aa8b325bb45c5c8dc92de4ed8152f35b50346100b057816003193601126100b057905490516001600160a01b039091168152602090f35b50346100b057816003193601126100b057602090517fa49807205ce4d355092ef5a8a18f56e8913cf4a201fbe287825b095693c217758152f35b50346100b057816003193601126100b057602090517fddaa901e2fe3bda354fe0ede2785152d5c109282a613fe024a056a3e66c41bb38152f35b8390346100b057816003193601126100b057807f288a15c4a15d470e4cd9cad2f113b91206b520c26dbd3dd74627f0c057baa19c60209252f3fea2646970667358221220cad5c9f0e4491797e5c20d901d655d0276ecfd56e2638241835ad6f19358509964736f6c63430008140033",
  "immutableReferences": {},
  "source": "// SPDX-License-Identifier: MIT\r\npragma solidity ^0.8.20;\r\n\r\nimport {Errors} from \"../libraries/Errors.sol\";\r\n\r\n/**\r\n * @title AccessControlWithOwner \r\n * @dev Strict role-based access with owner-as-admin enforcement\r\n */\r\ncontract AccessControlWithOwner {\r\n    address public owner;\r\n    mapping(bytes32 => mapping(address => bool)) internal _roles;\r\n    mapping(bytes32 => bytes32) internal _roleAdmin;\r\n    bool private _initialized;  // Simplified initialization guard\r\n\r\n    // Roles (kept original names)\r\n    bytes32 public constant ADMIN_ROLE = keccak256(\"ADMIN_ROLE\");\r\n    bytes32 public constant SUPPLIER_ROLE = keccak256(\"SUPPLIER_ROLE\");\r\n    bytes32 public constant TRANSPORTER_ROLE = keccak256(\"TRANSPORTER_ROLE\");\r\n    bytes32 public constant MANUFACTURER_ROLE = keccak256(\"MANUFACTURER_ROLE\");\r\n    bytes32 public constant WHOLESALER_ROLE = keccak256(\"WHOLESALER_ROLE\");\r\n    bytes32 public constant DISTRIBUTOR_ROLE = keccak256(\"DISTRIBUTOR_ROLE\");\r\n    bytes32 public constant CUSTOMER_ROLE = keccak256(\"CUSTOMER_ROLE\");\r\n\r\n    // Events (same structure)\r\n    event OwnershipTransferred(address indexed previousOwner, address indexed newOwner);\r\n    event RoleAdminChanged(bytes32 indexed role, bytes32 indexed previousAdminRole, bytes32 indexed newAdminRole);\r\n    event RoleGranted(bytes32 indexed role, address indexed account, address indexed sender);\r\n    event RoleRevoked(bytes32 indexed role, address indexed account, address indexed sender);\r\n\r\n    modifier initializer() {\r\n        if (_initialized) revert Errors.InitializationRejected();\r\n        _initialized = true;\r\n        _;\r\n    }\r\n\r\n    // INITIALIZATION\r\n    function _initializeOwner(address initialOwner) internal virtual initializer {\r\n        if(initialOwner == address(0)) revert Errors.AccessControlZeroAddress();\r\n        owner = initialOwner;\r\n        _initializeRoleAdminsInternal();\r\n        emit OwnershipTransferred(address(0), initialOwner);\r\n    }\r\n\r\n    // CORE FUNCTIONS (preserved names with security fixes)\r\n    function _grantRole(bytes32 role, address account, address sender) internal virtual {\r\n        if( role == CUSTOMER_ROLE ) \r\n            revert Errors.AccessControlCannotManageCustomerRole();\r\n        \r\n        if(account == address(0)) revert Errors.AccessControlZeroAddress();\r\n        \r\n        // Authorization check\r\n\r\n        if ( role == ADMIN_ROLE && sender != owner ){\r\n            revert Errors.AccessControlOwnerOnly();\r\n        }\r\n        if(!_hasRole(_getRoleAdmin(role), sender)) \r\n                revert Errors.AccessControlInvalidAdminRole(sender, _getRoleAdmin(role));\r\n\r\n        if(!_roles[role][account]) {\r\n            _roles[role][account] = true;\r\n            emit RoleGranted(role, account, sender);\r\n        }\r\n    }\r\n\r\n    function _revokeRole(bytes32 role, address account, address sender) internal virtual {\r\n        if(role == ADMIN_ROLE || role == CUSTOMER_ROLE) \r\n            revert Errors.AccessControlImmutableRole();\r\n            \r\n        if(account == address(0)) revert Errors.AccessControlZeroAddress();\r\n\r\n        // Mirror _grantRole authorization checks\r\n\r\n        if ( role == ADMIN_ROLE && sender != owner ){\r\n            revert Errors.AccessControlOwnerOnly();\r\n        }\r\n\r\n        if(!_hasRole(_getRoleAdmin(role), sender)) {\r\n            revert Errors.AccessControlInvalidAdminRole(sender, _getRoleAdmin(role));\r\n        }\r\n\r\n        if(_roles[role][account]) {\r\n            _roles[role][account] = false;\r\n            emit RoleRevoked(role, account, sender);\r\n        }\r\n    }\r\n\r\n    // ADMIN MANAGEMENT (owner-only enforcement)\r\n    function _setRoleAdmin(bytes32 role, bytes32 newAdminRole, address sender) internal virtual {\r\n        if(role == ADMIN_ROLE) revert Errors.AccessControlImmutableRole();\r\n        if(sender != owner) revert Errors.AccessControlOwnerOnly();\r\n        bytes32 previousAdmin = _roleAdmin[role];\r\n        if ( previousAdmin != newAdminRole || newAdminRole != CUSTOMER_ROLE ){\r\n            _roleAdmin[role] = newAdminRole;\r\n            emit RoleAdminChanged(role, previousAdmin, newAdminRole);\r\n        } else{\r\n            revert Errors.AccessControlInvalidAdminRole(sender, _getRoleAdmin(role));\r\n        }\r\n    }\r\n\r\n    // OWNERSHIP TRANSFER\r\n    function _transferOwnership(address newOwner, address sender) internal virtual {\r\n        if(sender != owner) revert Errors.AccessControlOwnerOnly();\r\n        if(newOwner == address(0)) revert Errors.AccessControlZeroAddress();\r\n        owner = newOwner;\r\n        emit OwnershipTransferred(sender, newOwner);\r\n    }\r\n\r\n    // INTERNAL HELPERS (optimized)\r\n    function _initializeRoleAdminsInternal() internal {\r\n        _roleAdmin[SUPPLIER_ROLE] = ADMIN_ROLE;\r\n        _roleAdmin[TRANSPORTER_ROLE] = ADMIN_ROLE;\r\n        _roleAdmin[MANUFACTURER_ROLE] = ADMIN_ROLE;\r\n        _roleAdmin[WHOLESALER_ROLE] = ADMIN_ROLE;\r\n        _roleAdmin[DISTRIBUTOR_ROLE] = ADMIN_ROLE;\r\n    }\r\n\r\n    function _hasRole(bytes32 role, address account) internal view returns(bool) {\r\n        if(account == address(0)) return false;\r\n        if(role == CUSTOMER_ROLE) return true;\r\n        if(role == ADMIN_ROLE && account == owner) return true;\r\n        return _roles[role][account];\r\n    }\r\n\r\n    function _getRoleAdmin(bytes32 role) internal view returns(bytes32) {\r\n        if(role == ADMIN_ROLE) return ADMIN_ROLE;\r\n        bytes32 admin = _roleAdmin[role];\r\n        return admin == bytes32(0) ? ADMIN_ROLE : admin;\r\n    }\r\n\r\n    // CHECKS (preserved names)\r\n    function _checkRole(bytes32 role, address account) internal view {\r\n        if(!_hasRole(role, account)) \r\n            revert Errors.AccessControlMissingRole(account, role);\r\n    }\r\n\r\n    function _checkSenderRole(bytes32 role) internal view {\r\n        if(!_hasRole(role, msg.sender)) \r\n            revert Errors.AccessControlMissingRole(msg.sender, role);\r\n    }\r\n}",
  "sourcePath": "C:\\Users\\rabra\\OneDrive\\Desktop\\full stack\\blockchain\\contracts\\access\\AccessControlWithOwner.sol",
  "compiler": {
    "name": "solc",
    "version": "0.8.20+commit.a1b79de6.Emscripten.clang"
  },
  "schemaVersion": "3.4.16",
  "updatedAt": "2025-05-03T20:56:09.554Z",
  "devdoc": {
    "details": "Strict role-based access with owner-as-admin enforcement",
    "kind": "dev",
    "methods": {},
    "title": "AccessControlWithOwner ",
    "version": 1
  },
  "userdoc": {
    "kind": "user",
    "methods": {},
    "version": 1
  }
}