{
  "contractName": "Medicine",
  "abi": [
    {
      "inputs": [
        {
          "internalType": "address",
          "name": "_supplyChainContract",
          "type": "address"
        },
        {
          "internalType": "bytes32",
          "name": "_description",
          "type": "bytes32"
        },
        {
          "internalType": "uint256",
          "name": "_quantity",
          "type": "uint256"
        },
        {
          "internalType": "address[]",
          "name": "_rawMaterialBatchIds",
          "type": "address[]"
        },
        {
          "internalType": "address",
          "name": "_manufacturer",
          "type": "address"
        },
        {
          "internalType": "uint256",
          "name": "_expiryDate",
          "type": "uint256"
        }
      ],
      "stateMutability": "nonpayable",
      "type": "constructor"
    },
    {
      "inputs": [],
      "name": "AccessControlZeroAddress",
      "type": "error"
    },
    {
      "inputs": [
        {
          "internalType": "uint8",
          "name": "currentStatus",
          "type": "uint8"
        },
        {
          "internalType": "uint8",
          "name": "requiredStatus",
          "type": "uint8"
        }
      ],
      "name": "BatchInvalidStateForAction",
      "type": "error"
    },
    {
      "inputs": [
        {
          "internalType": "address",
          "name": "caller",
          "type": "address"
        },
        {
          "internalType": "address",
          "name": "expected",
          "type": "address"
        }
      ],
      "name": "BatchUnauthorizedCaller",
      "type": "error"
    },
    {
      "inputs": [],
      "name": "MedAlreadyDestroyedOrFinalized",
      "type": "error"
    },
    {
      "inputs": [
        {
          "internalType": "uint8",
          "name": "currentStatus",
          "type": "uint8"
        },
        {
          "internalType": "uint8",
          "name": "targetStatus",
          "type": "uint8"
        }
      ],
      "name": "MedInvalidStateTransition",
      "type": "error"
    },
    {
      "anonymous": false,
      "inputs": [
        {
          "indexed": false,
          "internalType": "bytes32",
          "name": "reasonCode",
          "type": "bytes32"
        },
        {
          "indexed": false,
          "internalType": "uint256",
          "name": "timestamp",
          "type": "uint256"
        }
      ],
      "name": "BatchDestroyed",
      "type": "event"
    },
    {
      "anonymous": false,
      "inputs": [
        {
          "indexed": false,
          "internalType": "uint256",
          "name": "timestamp",
          "type": "uint256"
        }
      ],
      "name": "BatchFinalized",
      "type": "event"
    },
    {
      "anonymous": false,
      "inputs": [
        {
          "indexed": true,
          "internalType": "address",
          "name": "from",
          "type": "address"
        },
        {
          "indexed": true,
          "internalType": "address",
          "name": "to",
          "type": "address"
        },
        {
          "indexed": false,
          "internalType": "uint256",
          "name": "timestamp",
          "type": "uint256"
        }
      ],
      "name": "OwnershipTransferred",
      "type": "event"
    },
    {
      "anonymous": false,
      "inputs": [
        {
          "indexed": false,
          "internalType": "enum Medicine.Status",
          "name": "newStatus",
          "type": "uint8"
        },
        {
          "indexed": false,
          "internalType": "uint256",
          "name": "timestamp",
          "type": "uint256"
        }
      ],
      "name": "StatusChanged",
      "type": "event"
    },
    {
      "anonymous": false,
      "inputs": [
        {
          "indexed": true,
          "internalType": "address",
          "name": "transporter",
          "type": "address"
        },
        {
          "indexed": true,
          "internalType": "address",
          "name": "destination",
          "type": "address"
        },
        {
          "indexed": false,
          "internalType": "uint256",
          "name": "timestamp",
          "type": "uint256"
        }
      ],
      "name": "TransporterAssigned",
      "type": "event"
    },
    {
      "inputs": [],
      "name": "batchId",
      "outputs": [
        {
          "internalType": "address",
          "name": "",
          "type": "address"
        }
      ],
      "stateMutability": "view",
      "type": "function"
    },
    {
      "inputs": [],
      "name": "creationTime",
      "outputs": [
        {
          "internalType": "uint256",
          "name": "",
          "type": "uint256"
        }
      ],
      "stateMutability": "view",
      "type": "function"
    },
    {
      "inputs": [],
      "name": "currentDestination",
      "outputs": [
        {
          "internalType": "address",
          "name": "",
          "type": "address"
        }
      ],
      "stateMutability": "view",
      "type": "function"
    },
    {
      "inputs": [],
      "name": "currentOwner",
      "outputs": [
        {
          "internalType": "address",
          "name": "",
          "type": "address"
        }
      ],
      "stateMutability": "view",
      "type": "function"
    },
    {
      "inputs": [],
      "name": "currentTransporter",
      "outputs": [
        {
          "internalType": "address",
          "name": "",
          "type": "address"
        }
      ],
      "stateMutability": "view",
      "type": "function"
    },
    {
      "inputs": [],
      "name": "description",
      "outputs": [
        {
          "internalType": "bytes32",
          "name": "",
          "type": "bytes32"
        }
      ],
      "stateMutability": "view",
      "type": "function"
    },
    {
      "inputs": [],
      "name": "expiryDate",
      "outputs": [
        {
          "internalType": "uint256",
          "name": "",
          "type": "uint256"
        }
      ],
      "stateMutability": "view",
      "type": "function"
    },
    {
      "inputs": [],
      "name": "lastUpdateTime",
      "outputs": [
        {
          "internalType": "uint256",
          "name": "",
          "type": "uint256"
        }
      ],
      "stateMutability": "view",
      "type": "function"
    },
    {
      "inputs": [],
      "name": "manufacturer",
      "outputs": [
        {
          "internalType": "address",
          "name": "",
          "type": "address"
        }
      ],
      "stateMutability": "view",
      "type": "function"
    },
    {
      "inputs": [],
      "name": "quantity",
      "outputs": [
        {
          "internalType": "uint256",
          "name": "",
          "type": "uint256"
        }
      ],
      "stateMutability": "view",
      "type": "function"
    },
    {
      "inputs": [
        {
          "internalType": "uint256",
          "name": "",
          "type": "uint256"
        }
      ],
      "name": "rawMaterialBatchIds",
      "outputs": [
        {
          "internalType": "address",
          "name": "",
          "type": "address"
        }
      ],
      "stateMutability": "view",
      "type": "function"
    },
    {
      "inputs": [],
      "name": "status",
      "outputs": [
        {
          "internalType": "enum Medicine.Status",
          "name": "",
          "type": "uint8"
        }
      ],
      "stateMutability": "view",
      "type": "function"
    },
    {
      "inputs": [],
      "name": "supplyChainContract",
      "outputs": [
        {
          "internalType": "address",
          "name": "",
          "type": "address"
        }
      ],
      "stateMutability": "view",
      "type": "function"
    },
    {
      "inputs": [
        {
          "internalType": "enum Medicine.Status",
          "name": "_nextTransitStatus",
          "type": "uint8"
        },
        {
          "internalType": "address",
          "name": "_transporter",
          "type": "address"
        },
        {
          "internalType": "address",
          "name": "_destination",
          "type": "address"
        }
      ],
      "name": "setInTransit",
      "outputs": [],
      "stateMutability": "nonpayable",
      "type": "function"
    },
    {
      "inputs": [
        {
          "internalType": "enum Medicine.Status",
          "name": "_nextAtStatus",
          "type": "uint8"
        },
        {
          "internalType": "address",
          "name": "_receiver",
          "type": "address"
        }
      ],
      "name": "setReceived",
      "outputs": [],
      "stateMutability": "nonpayable",
      "type": "function"
    },
    {
      "inputs": [],
      "name": "setConsumedOrSold",
      "outputs": [],
      "stateMutability": "nonpayable",
      "type": "function"
    },
    {
      "inputs": [
        {
          "internalType": "bytes32",
          "name": "_reasonCode",
          "type": "bytes32"
        }
      ],
      "name": "setDestroyed",
      "outputs": [],
      "stateMutability": "nonpayable",
      "type": "function"
    },
    {
      "inputs": [],
      "name": "getDetails",
      "outputs": [
        {
          "internalType": "bytes32",
          "name": "_description",
          "type": "bytes32"
        },
        {
          "internalType": "uint256",
          "name": "_quantity",
          "type": "uint256"
        },
        {
          "internalType": "address[]",
          "name": "_rawMaterialBatchIds",
          "type": "address[]"
        },
        {
          "internalType": "address",
          "name": "_manufacturer",
          "type": "address"
        },
        {
          "internalType": "uint256",
          "name": "_creationTime",
          "type": "uint256"
        },
        {
          "internalType": "uint256",
          "name": "_expiryDate",
          "type": "uint256"
        },
        {
          "internalType": "enum Medicine.Status",
          "name": "_status",
          "type": "uint8"
        },
        {
          "internalType": "address",
          "name": "_currentOwner",
          "type": "address"
        },
        {
          "internalType": "address",
          "name": "_currentTransporter",
          "type": "address"
        },
        {
          "internalType": "address",
          "name": "_currentDestination",
          "type": "address"
        },
        {
          "internalType": "uint256",
          "name": "_lastUpdateTime",
          "type": "uint256"
        }
      ],
      "stateMutability": "view",
      "type": "function"
    }
  ],
  "bytecode": "0x6040610160815234620002c25762001040803803806200001f81620002c6565b928339810160c082820312620002c2576200003a82620002ec565b926020938484015192828501519060608601519060018060401b0391828111620002c25787019281601f85011215620002c25783519183831162000283578260051b948a6200008b818801620002c6565b80958152018b8197830101928311620002c2578b809201905b838210620002a8575050505060a0620000c060808a01620002ec565b980151966001600160a01b0395808716156200029757868a161562000297573060805260a05260c05260e05251908111620002835768010000000000000000811162000283575f9182548284558083106200025b575b50828052878320835b8381106200024657505050507fc13a1166d81cd3b0b352a367aebab95f3a6f6bc695fdab8e9a9d335239c3861b610100968688526101209642885261014096875260015490610100600160a81b039060081b169060018060a81b031916179384600155426004557f40a180796b90921dd8508eb434c78206ca5c737a0d584582edf399bc9711d9e98680518681524285820152a185519442865260081c1693a35191610d3e9384620003028539608051846107f8015260a051848181610349015281816104860152818161058e015281816108460152610ad8015260c05184818161018a015261053a015260e0518481816101af01526109f30152518381816101f101526104f301525182818161021801526102eb01525181818161023e01526107c00152f35b8251861682820155918901916001016200011f565b8380528289852091820191015b81811062000277575062000116565b84815560010162000268565b634e487b7160e01b5f52604160045260245ffd5b87516332cdae1b60e01b8152600490fd5b828091620002b684620002ec565b815201910190620000a4565b5f80fd5b6040519190601f01601f191682016001600160401b038111838210176200028357604052565b51906001600160a01b0382168203620002c25756fe608060409080825260049081361015610016575f80fd5b5f90813560e01c9081630634f1ce14610a955750806306c81cc414610a6c5780630c16971914610a1657806317fc45e2146109db578063200d2ed2146109b25780633ff08b05146108275780634972134a146107e3578063516dde43146107a85780635b37dc721461055d5780637284e4161461052257806374754282146104de57806375422d45146104b5578063a269cc7a14610471578063b387ef9214610444578063b6bc7a0414610335578063c8f33c9114610312578063d8270dce146102d35763fbbf93a0146100e8575f80fd5b346102d057806003193601126102d057600192835460018060a01b03806002541690806003541692865494805180978054988983526020808094018d819c8580527f290decd9548b62a8d60345a988386fc84ba6bc95484008f6362f93160ef3e56391865b8281106102b95750505050829003601f01601f191682019b905067ffffffffffffffff8c11828d10176102a657508a8493929452610160808c01937f00000000000000000000000000000000000000000000000000000000000000008d528c847f00000000000000000000000000000000000000000000000000000000000000009101528c0152518092526101808a0198925b8281106102915750505050869750817f00000000000000000000000000000000000000000000000000000000000000001660608801527f000000000000000000000000000000000000000000000000000000000000000060808801527f000000000000000000000000000000000000000000000000000000000000000060a088015261027260c0880160ff8316610cae565b60081c1660e08601526101008501526101208401526101408301520390f35b835186168a5298810198928101928b016101e0565b634e487b7160e01b835260419052602482fd5b83548c16855288959094019392810192810161014d565b80fd5b50823461030e578160031936011261030e57602090517f00000000000000000000000000000000000000000000000000000000000000008152f35b5080fd5b5091903461033157826003193601126103315760209250549051908152f35b8280fd5b50823461030e578160031936011261030e577f00000000000000000000000000000000000000000000000000000000000000006001600160a01b038116330361041757506001549260ff8416600981101561040457600681036103e9575060075f80516020610ce9833981519152939460ff1916176001554290557f5cff112f1cb588779b4e6aae6baf0d738747fcf132f0ff202adcec605f9cabdf60208251428152a1805160078152426020820152a180f35b604492519163c05a87cf60e01b835282015260076024820152fd5b634e487b7160e01b845260218252602484fd5b8151631fa9027960e01b8152338186019081526001600160a01b0390921660208301529081906040010390fd5b50823461030e578160031936011261030e57600154905160089190911c6001600160a01b03168152602090f35b50823461030e578160031936011261030e57517f00000000000000000000000000000000000000000000000000000000000000006001600160a01b03168152602090f35b50823461030e578160031936011261030e5760025490516001600160a01b039091168152602090f35b50823461030e578160031936011261030e57517f00000000000000000000000000000000000000000000000000000000000000006001600160a01b03168152602090f35b50823461030e578160031936011261030e57602090517f00000000000000000000000000000000000000000000000000000000000000008152f35b50919034610331578160031936011261033157803560098110156107a457610583610c94565b916001600160a01b037f0000000000000000000000000000000000000000000000000000000000000000818116330361077757506001549260ff8416600981101580610758576001821490811561076b575b8115610747575b89916002851490811561073a575b838215610715575b501590811561070c575b506106b157895f80516020610ce98339815191528a60ff6106a78c8c8c7fc13a1166d81cd3b0b352a367aebab95f3a6f6bc695fdab8e9a9d335239c3861b60208e6106468f610ccf565b60018054610100600160a81b03198116600898891b610100600160a81b03161791829055600280546001600160a01b031990811690915560038054909116905542958690558a519586529690811c821695901c1692a3835192839116610cae565b426020820152a180f35b888a879386936106f9576106e6575051635a9516b160e01b815260ff9384169281019283529216602082015281906040010390fd5b634e487b7160e01b815260218452602490fd5b634e487b7160e01b825260218552602482fd5b9050155f6105fc565b909150610727576006851490836105f2565b634e487b7160e01b8b526021875260248bfd5b8b935085881491506105ea565b8091506107585760058214906105dc565b634e487b7160e01b895260218552602489fd5b505060038114886105d5565b8551631fa9027960e01b8152338185019081526001600160a01b0390921660208301529081906040010390fd5b8380fd5b50823461030e578160031936011261030e57602090517f00000000000000000000000000000000000000000000000000000000000000008152f35b50823461030e578160031936011261030e57517f00000000000000000000000000000000000000000000000000000000000000006001600160a01b03168152602090f35b50919034610331576020366003190112610331576001600160a01b03907f0000000000000000000000000000000000000000000000000000000000000000828116330361098557506001549160ff831660098110156109725760088114908115610967575b5061095857917f3e6f997c58cb1412e97320e1a9863980eb67e8223fab083f2e77b8afb8c8c46084869360085f80516020610ce9833981519152979685821c16946affffffffffffffffffffff60a81b16176001556bffffffffffffffffffffffff60a01b806002541660025560035416600355428155815190358152426020820152a180610928575b5050805160088152426020820152a180f35b7fc13a1166d81cd3b0b352a367aebab95f3a6f6bc695fdab8e9a9d335239c3861b60208451428152a3825f610916565b508251635e1f756960e01b8152fd5b60079150145f61088c565b634e487b7160e01b865260218352602486fd5b8351631fa9027960e01b8152339281019283526001600160a01b0390911660208301529081906040010390fd5b50823461030e578160031936011261030e576020906109d960ff6001541691518092610cae565bf35b50823461030e578160031936011261030e57602090517f00000000000000000000000000000000000000000000000000000000000000008152f35b509190346103315760203660031901126103315735825481101561033157826020935260018060a01b03907f290decd9548b62a8d60345a988386fc84ba6bc95484008f6362f93160ef3e5630154169051908152f35b50823461030e578160031936011261030e5760035490516001600160a01b039091168152602090f35b849150346103315760603660031901126103315783359360098510156107a457610abd610c94565b6044356001600160a01b0381811694909291859003610c90577f00000000000000000000000000000000000000000000000000000000000000008381163303610c6657505060ff60015416600981101580610c47578115908115610c5a575b8115610c37575b889160018b14908115610c29575b838215610c04575b5015908115610bfb575b50610bc657505050610b635f80516020610ce98339815191529697610ccf565b1690826bffffffffffffffffffffffff60a01b8381600254161760025560035416176003554290557fbe373ec085c6b0c7d8170b85a932cee817c77c259c2fe969f9867170ef1c403160208451428152a360ff600154166106a782518092610cae565b878987938c936106f9576106e6575051635a9516b160e01b815260ff9384169281019283529216602082015281906040010390fd5b9050158b610b43565b909150610c165760058b149083610b39565b634e487b7160e01b8a526021875260248afd5b8a935060038c149150610b31565b809150610c475784821490610b23565b634e487b7160e01b885260218552602488fd5b50506002811487610b1c565b631fa9027960e01b8252338583019081526001600160a01b03909116602082015281906040010390fd5b8680fd5b602435906001600160a01b0382168203610caa57565b5f80fd5b906009821015610cbb5752565b634e487b7160e01b5f52602160045260245ffd5b6009811015610cbb5760ff80196001541691161760015556fe40a180796b90921dd8508eb434c78206ca5c737a0d584582edf399bc9711d9e9a2646970667358221220c7312548de755ae3c04ad4a544f5958951731472daf0e4b4c7afceb6374d2c8f64736f6c63430008140033",
  "immutableReferences": {
    "915": [
      {
        "length": 32,
        "start": 2040
      }
    ],
    "917": [
      {
        "length": 32,
        "start": 841
      },
      {
        "length": 32,
        "start": 1158
      },
      {
        "length": 32,
        "start": 1422
      },
      {
        "length": 32,
        "start": 2118
      },
      {
        "length": 32,
        "start": 2776
      }
    ],
    "919": [
      {
        "length": 32,
        "start": 394
      },
      {
        "length": 32,
        "start": 1338
      }
    ],
    "921": [
      {
        "length": 32,
        "start": 431
      },
      {
        "length": 32,
        "start": 2547
      }
    ],
    "926": [
      {
        "length": 32,
        "start": 497
      },
      {
        "length": 32,
        "start": 1267
      }
    ],
    "928": [
      {
        "length": 32,
        "start": 536
      },
      {
        "length": 32,
        "start": 747
      }
    ],
    "930": [
      {
        "length": 32,
        "start": 574
      },
      {
        "length": 32,
        "start": 1984
      }
    ]
  },
  "source": "// SPDX-License-Identifier: MIT\r\npragma solidity ^0.8.20;\r\n\r\nimport { Errors } from \"../libraries/Errors.sol\";\r\n\r\n/**\r\n * @title Medicine (Batch Contract)\r\n * @dev Data container for medicine batches. State managed strictly by SupplyChainLogic.\r\n *      Uses standard naming conventions internally; public interface preserved.\r\n */\r\ncontract Medicine {\r\n    // --- Types ---\r\n    enum Status {\r\n        Created,        // Initial state after manufacturing\r\n        InTransitToW,   // Moving to Wholesaler\r\n        AtWholesaler,   // Received by Wholesaler\r\n        InTransitToD,   // Moving to Distributor\r\n        AtDistributor,  // Received by Distributor\r\n        InTransitToC,   // Moving to Customer/Pharmacy/Hospital\r\n        AtCustomer,     // Received by end-point/customer\r\n        ConsumedOrSold, // Final state indicating use/sale\r\n        Destroyed       // Final state indicating destruction\r\n    }\r\n\r\n    // --- State (Immutable data set at creation) ---\r\n    address public immutable batchId; // Address of this contract\r\n    address public immutable supplyChainContract; // Address of the controlling Logic contract\r\n    bytes32 public immutable description;\r\n    uint public immutable quantity;\r\n    address[] public  rawMaterialBatchIds; // Store immutably if not modified after creation\r\n    address public immutable manufacturer; // Creator of the batch\r\n    uint public immutable creationTime;\r\n    uint public immutable expiryDate;\r\n\r\n    // --- State (Mutable data managed by SupplyChainLogic) ---\r\n    Status public status;\r\n    address public currentOwner; // Current holder (Manufacturer -> Wholesaler -> Distributor -> Customer)\r\n    address public currentTransporter; // Assigned during transit phases\r\n    address public currentDestination; // Expected recipient during transit phases\r\n    uint public lastUpdateTime; // Timestamp of the last state change\r\n\r\n    // --- Events (PascalCase - preserved) ---\r\n    event StatusChanged(Status newStatus, uint timestamp);\r\n    event OwnershipTransferred(address indexed from, address indexed to, uint timestamp);\r\n    event TransporterAssigned(address indexed transporter, address indexed destination, uint timestamp);\r\n    event BatchDestroyed(bytes32 reasonCode, uint timestamp);\r\n    event BatchFinalized(uint timestamp); // For ConsumedOrSold status\r\n\r\n    // --- Modifiers ---\r\n    modifier onlySupplyChain() {\r\n        if (msg.sender != supplyChainContract) {\r\n            revert Errors.BatchUnauthorizedCaller(msg.sender, supplyChainContract);\r\n        }\r\n        _;\r\n    }\r\n\r\n    // --- Constructor ---\r\n    constructor(\r\n        address _supplyChainContract,\r\n        bytes32 _description,\r\n        uint _quantity,\r\n        address[] memory _rawMaterialBatchIds,\r\n        address _manufacturer,\r\n        uint _expiryDate\r\n    ) {\r\n        // Basic address validation\r\n        if (_supplyChainContract == address(0)) revert Errors.AccessControlZeroAddress();\r\n        if (_manufacturer == address(0)) revert Errors.AccessControlZeroAddress();\r\n        // Other validation (quantity, expiry, RM IDs) happens in Logic contract\r\n\r\n        batchId = address(this);\r\n        supplyChainContract = _supplyChainContract;\r\n        description = _description;\r\n        quantity = _quantity;\r\n        rawMaterialBatchIds = _rawMaterialBatchIds; // Assign immutable array\r\n        manufacturer = _manufacturer;\r\n        creationTime = block.timestamp;\r\n        expiryDate = _expiryDate; // Validation done in Logic\r\n\r\n        status = Status.Created; // Initial status\r\n        currentOwner = _manufacturer; // Initial owner\r\n        lastUpdateTime = block.timestamp;\r\n\r\n        emit StatusChanged(status, lastUpdateTime);\r\n        // Emit initial ownership (from address(0) conceptually)\r\n        emit OwnershipTransferred(address(0), currentOwner, lastUpdateTime);\r\n    }\r\n\r\n    // --- State Transitions (Called by SupplyChainLogic only) ---\r\n\r\n    /**\r\n     * @dev Sets the batch status to an \"InTransit\" state and assigns transporter/destination.\r\n     * @param _nextTransitStatus The target transit status (InTransitToW, InTransitToD, InTransitToC).\r\n     * @param _transporter The address of the transporter.\r\n     * @param _destination The address of the intended receiver.\r\n     */\r\n    function setInTransit(Status _nextTransitStatus, address _transporter, address _destination) external onlySupplyChain {\r\n        // State machine checks (Defense-in-depth)\r\n        bool validPriorState = status == Status.Created || status == Status.AtWholesaler || status == Status.AtDistributor;\r\n        bool validTargetState = _nextTransitStatus == Status.InTransitToW || _nextTransitStatus == Status.InTransitToD || _nextTransitStatus == Status.InTransitToC;\r\n\r\n        if (!validPriorState || !validTargetState) {\r\n            revert Errors.MedInvalidStateTransition(uint8(status), uint8(_nextTransitStatus));\r\n        }\r\n        // Further logic checks (e.g., Created -> InTransitToW only) handled in SupplyChainLogic\r\n\r\n        status = _nextTransitStatus;\r\n        currentTransporter = _transporter;\r\n        currentDestination = _destination;\r\n        lastUpdateTime = block.timestamp;\r\n\r\n        emit TransporterAssigned(_transporter, _destination, lastUpdateTime);\r\n        emit StatusChanged(status, lastUpdateTime);\r\n    }\r\n\r\n    /**\r\n     * @dev Sets the batch status to an \"At\" state upon receipt and updates the owner.\r\n     * @param _nextAtStatus The target received status (AtWholesaler, AtDistributor, AtCustomer).\r\n     * @param _receiver The address of the receiver (becomes the new owner).\r\n     */\r\n    function setReceived(Status _nextAtStatus, address _receiver) external onlySupplyChain {\r\n        // State machine checks (Defense-in-depth)\r\n        bool validPriorState = status == Status.InTransitToW || status == Status.InTransitToD || status == Status.InTransitToC;\r\n        bool validTargetState = _nextAtStatus == Status.AtWholesaler || _nextAtStatus == Status.AtDistributor || _nextAtStatus == Status.AtCustomer;\r\n\r\n        if (!validPriorState || !validTargetState) {\r\n             revert Errors.MedInvalidStateTransition(uint8(status), uint8(_nextAtStatus));\r\n        }\r\n         // Further logic checks (e.g., InTransitToW -> AtWholesaler only) handled in SupplyChainLogic\r\n\r\n        address previousOwner = currentOwner;\r\n\r\n        status = _nextAtStatus;\r\n        currentOwner = _receiver; // Ownership transfer\r\n        currentTransporter = address(0); // Clear transit info\r\n        currentDestination = address(0);\r\n        lastUpdateTime = block.timestamp;\r\n\r\n        emit OwnershipTransferred(previousOwner, currentOwner, lastUpdateTime);\r\n        emit StatusChanged(status, lastUpdateTime);\r\n    }\r\n\r\n    /** @dev Sets the batch status to ConsumedOrSold (final state). */\r\n    function setConsumedOrSold() external onlySupplyChain {\r\n        // State machine check (Defense-in-depth)\r\n        if (status != Status.AtCustomer) {\r\n            // Using BatchInvalidStateForAction as it's a final action, not a typical transition\r\n            revert Errors.BatchInvalidStateForAction(uint8(status), uint8(Status.ConsumedOrSold));\r\n        }\r\n\r\n        status = Status.ConsumedOrSold;\r\n        // Owner remains the customer who consumed/sold it\r\n        lastUpdateTime = block.timestamp;\r\n        emit BatchFinalized(lastUpdateTime);\r\n        emit StatusChanged(status, lastUpdateTime);\r\n    }\r\n\r\n    /** @dev Sets the batch status to Destroyed (final state). */\r\n    function setDestroyed(bytes32 _reasonCode) external onlySupplyChain {\r\n        // Prevent action on already finalized states\r\n        if (status == Status.Destroyed || status == Status.ConsumedOrSold) {\r\n             revert Errors.MedAlreadyDestroyedOrFinalized();\r\n        }\r\n\r\n        address previousOwner = currentOwner;\r\n\r\n        status = Status.Destroyed;\r\n        currentOwner = address(0); // Ownership relinquished\r\n        currentTransporter = address(0);\r\n        currentDestination = address(0);\r\n        lastUpdateTime = block.timestamp;\r\n\r\n        emit BatchDestroyed(_reasonCode, lastUpdateTime);\r\n        // Emit ownership transfer to address(0) if there was a previous owner\r\n        if (previousOwner != address(0)) {\r\n            emit OwnershipTransferred(previousOwner, address(0), lastUpdateTime);\r\n        }\r\n        emit StatusChanged(status, lastUpdateTime);\r\n    }\r\n\r\n    // --- View Function (Called by SupplyChainLogic via staticcall) ---\r\n\r\n    /** @dev Returns the current state details of the batch. */\r\n    function getDetails() external view returns (\r\n        bytes32 _description, uint _quantity, address[] memory _rawMaterialBatchIds,\r\n        address _manufacturer, uint _creationTime, uint _expiryDate, Status _status,\r\n        address _currentOwner, address _currentTransporter, address _currentDestination,\r\n        uint _lastUpdateTime\r\n    ) {\r\n        return (\r\n            description,\r\n            quantity,\r\n            rawMaterialBatchIds,\r\n            manufacturer,\r\n            creationTime,\r\n            expiryDate,\r\n            status,\r\n            currentOwner,\r\n            currentTransporter,\r\n            currentDestination,\r\n            lastUpdateTime\r\n        );\r\n    }\r\n}",
  "sourcePath": "C:\\Users\\rabra\\OneDrive\\Desktop\\full stack\\blockchain\\contracts\\batches\\Medicine.sol",
  "compiler": {
    "name": "solc",
    "version": "0.8.20+commit.a1b79de6.Emscripten.clang"
  },
  "schemaVersion": "3.4.16",
  "updatedAt": "2025-05-03T20:56:09.559Z",
  "devdoc": {
    "details": "Data container for medicine batches. State managed strictly by SupplyChainLogic.      Uses standard naming conventions internally; public interface preserved.",
    "kind": "dev",
    "methods": {
      "getDetails()": {
        "details": "Returns the current state details of the batch. "
      },
      "setConsumedOrSold()": {
        "details": "Sets the batch status to ConsumedOrSold (final state). "
      },
      "setDestroyed(bytes32)": {
        "details": "Sets the batch status to Destroyed (final state). "
      },
      "setInTransit(uint8,address,address)": {
        "details": "Sets the batch status to an \"InTransit\" state and assigns transporter/destination.",
        "params": {
          "_destination": "The address of the intended receiver.",
          "_nextTransitStatus": "The target transit status (InTransitToW, InTransitToD, InTransitToC).",
          "_transporter": "The address of the transporter."
        }
      },
      "setReceived(uint8,address)": {
        "details": "Sets the batch status to an \"At\" state upon receipt and updates the owner.",
        "params": {
          "_nextAtStatus": "The target received status (AtWholesaler, AtDistributor, AtCustomer).",
          "_receiver": "The address of the receiver (becomes the new owner)."
        }
      }
    },
    "title": "Medicine (Batch Contract)",
    "version": 1
  },
  "userdoc": {
    "kind": "user",
    "methods": {},
    "version": 1
  }
}