{
  "contractName": "RawMaterial",
  "abi": [
    {
      "inputs": [
        {
          "internalType": "address",
          "name": "_supplyChainContract",
          "type": "address"
        },
        {
          "internalType": "bytes32",
          "name": "_description",
          "type": "bytes32"
        },
        {
          "internalType": "uint256",
          "name": "_quantity",
          "type": "uint256"
        },
        {
          "internalType": "address",
          "name": "_supplier",
          "type": "address"
        },
        {
          "internalType": "address",
          "name": "_intendedManufacturer",
          "type": "address"
        }
      ],
      "stateMutability": "nonpayable",
      "type": "constructor"
    },
    {
      "inputs": [],
      "name": "AccessControlZeroAddress",
      "type": "error"
    },
    {
      "inputs": [],
      "name": "BatchAlreadyDestroyed",
      "type": "error"
    },
    {
      "inputs": [
        {
          "internalType": "uint8",
          "name": "currentStatus",
          "type": "uint8"
        },
        {
          "internalType": "uint8",
          "name": "requiredStatus",
          "type": "uint8"
        }
      ],
      "name": "BatchInvalidStateForAction",
      "type": "error"
    },
    {
      "inputs": [
        {
          "internalType": "address",
          "name": "caller",
          "type": "address"
        },
        {
          "internalType": "address",
          "name": "expected",
          "type": "address"
        }
      ],
      "name": "BatchUnauthorizedCaller",
      "type": "error"
    },
    {
      "anonymous": false,
      "inputs": [
        {
          "indexed": false,
          "internalType": "bytes32",
          "name": "reasonCode",
          "type": "bytes32"
        },
        {
          "indexed": false,
          "internalType": "uint256",
          "name": "timestamp",
          "type": "uint256"
        }
      ],
      "name": "BatchDestroyed",
      "type": "event"
    },
    {
      "anonymous": false,
      "inputs": [
        {
          "indexed": false,
          "internalType": "enum RawMaterial.Status",
          "name": "newStatus",
          "type": "uint8"
        },
        {
          "indexed": false,
          "internalType": "uint256",
          "name": "timestamp",
          "type": "uint256"
        }
      ],
      "name": "StatusChanged",
      "type": "event"
    },
    {
      "anonymous": false,
      "inputs": [
        {
          "indexed": true,
          "internalType": "address",
          "name": "transporter",
          "type": "address"
        },
        {
          "indexed": false,
          "internalType": "uint256",
          "name": "timestamp",
          "type": "uint256"
        }
      ],
      "name": "TransporterAssigned",
      "type": "event"
    },
    {
      "inputs": [],
      "name": "batchId",
      "outputs": [
        {
          "internalType": "address",
          "name": "",
          "type": "address"
        }
      ],
      "stateMutability": "view",
      "type": "function"
    },
    {
      "inputs": [],
      "name": "creationTime",
      "outputs": [
        {
          "internalType": "uint256",
          "name": "",
          "type": "uint256"
        }
      ],
      "stateMutability": "view",
      "type": "function"
    },
    {
      "inputs": [],
      "name": "currentTransporter",
      "outputs": [
        {
          "internalType": "address",
          "name": "",
          "type": "address"
        }
      ],
      "stateMutability": "view",
      "type": "function"
    },
    {
      "inputs": [],
      "name": "description",
      "outputs": [
        {
          "internalType": "bytes32",
          "name": "",
          "type": "bytes32"
        }
      ],
      "stateMutability": "view",
      "type": "function"
    },
    {
      "inputs": [],
      "name": "intendedManufacturer",
      "outputs": [
        {
          "internalType": "address",
          "name": "",
          "type": "address"
        }
      ],
      "stateMutability": "view",
      "type": "function"
    },
    {
      "inputs": [],
      "name": "lastUpdateTime",
      "outputs": [
        {
          "internalType": "uint256",
          "name": "",
          "type": "uint256"
        }
      ],
      "stateMutability": "view",
      "type": "function"
    },
    {
      "inputs": [],
      "name": "quantity",
      "outputs": [
        {
          "internalType": "uint256",
          "name": "",
          "type": "uint256"
        }
      ],
      "stateMutability": "view",
      "type": "function"
    },
    {
      "inputs": [],
      "name": "status",
      "outputs": [
        {
          "internalType": "enum RawMaterial.Status",
          "name": "",
          "type": "uint8"
        }
      ],
      "stateMutability": "view",
      "type": "function"
    },
    {
      "inputs": [],
      "name": "supplier",
      "outputs": [
        {
          "internalType": "address",
          "name": "",
          "type": "address"
        }
      ],
      "stateMutability": "view",
      "type": "function"
    },
    {
      "inputs": [],
      "name": "supplyChainContract",
      "outputs": [
        {
          "internalType": "address",
          "name": "",
          "type": "address"
        }
      ],
      "stateMutability": "view",
      "type": "function"
    },
    {
      "inputs": [
        {
          "internalType": "address",
          "name": "_transporter",
          "type": "address"
        }
      ],
      "name": "setInTransit",
      "outputs": [],
      "stateMutability": "nonpayable",
      "type": "function"
    },
    {
      "inputs": [],
      "name": "setReceived",
      "outputs": [],
      "stateMutability": "nonpayable",
      "type": "function"
    },
    {
      "inputs": [
        {
          "internalType": "bytes32",
          "name": "_reasonCode",
          "type": "bytes32"
        }
      ],
      "name": "setDestroyed",
      "outputs": [],
      "stateMutability": "nonpayable",
      "type": "function"
    },
    {
      "inputs": [],
      "name": "getDetails",
      "outputs": [
        {
          "internalType": "bytes32",
          "name": "_description",
          "type": "bytes32"
        },
        {
          "internalType": "uint256",
          "name": "_quantity",
          "type": "uint256"
        },
        {
          "internalType": "address",
          "name": "_supplier",
          "type": "address"
        },
        {
          "internalType": "address",
          "name": "_intendedManufacturer",
          "type": "address"
        },
        {
          "internalType": "uint256",
          "name": "_creationTime",
          "type": "uint256"
        },
        {
          "internalType": "enum RawMaterial.Status",
          "name": "_status",
          "type": "uint8"
        },
        {
          "internalType": "address",
          "name": "_currentTransporter",
          "type": "address"
        },
        {
          "internalType": "uint256",
          "name": "_lastUpdateTime",
          "type": "uint256"
        }
      ],
      "stateMutability": "view",
      "type": "function"
    }
  ],
  "bytecode": "0x6101603461018757601f61095138819003918201601f1916830191906001600160401b0383118484101761018b578160a092859260409586528339810103126101875761004b8261019f565b906020830151818401519061006e60806100676060880161019f565b960161019f565b936001600160a01b0380821615610176578087161561017657851615610165573060805260a05260c05260e0526101009283526101209182526101409042825260ff195f54165f55426001557f40a180796b90921dd8508eb434c78206ca5c737a0d584582edf399bc9711d9e98180515f8152426020820152a1519161079d93846101b4853960805184610536015260a0518481816101f001528181610383015281816103f2015261057a015260c05184818160d501526104fe015260e05184818160f8015261072301525183818161012601526106b60152518281816101500152610672015251818181610178015261032c0152f35b83516332cdae1b60e01b8152600490fd5b84516332cdae1b60e01b8152600490fd5b5f80fd5b634e487b7160e01b5f52604160045260245ffd5b51906001600160a01b03821682036101875756fe6080604081815260049182361015610015575f80fd5b5f92833560e01c91826317fc45e21461070c57508163200d2ed2146106e557816336da4468146106a15781633cec47861461065d5781633ff08b05146105655781634972134a146105215781637284e416146104e657816372b30cc0146103de57816375422d45146103b2578163a269cc7a1461036e578163c8f33c911461034f578163d8270dce14610314578163f356e93f146101c6575063fbbf93a0146100bc575f80fd5b346101c257816003193601126101c257905460015482517f000000000000000000000000000000000000000000000000000000000000000081527f000000000000000000000000000000000000000000000000000000000000000060208201526001600160a01b037f00000000000000000000000000000000000000000000000000000000000000008116948201949094527f0000000000000000000000000000000000000000000000000000000000000000841660608201527f000000000000000000000000000000000000000000000000000000000000000060808201526101009390926101b260a0850160ff8316610746565b60081c1660c083015260e0820152f35b5080fd5b8383346101c25760203660031901126101c2576001600160a01b03833581811691828203610310577f000000000000000000000000000000000000000000000000000000000000000090811633036102e3575083549460ff8616818110156102d057806102b45750507f40a180796b90921dd8508eb434c78206ca5c737a0d584582edf399bc9711d9e993946001916101008360a81b039060081b16906affffffffffffffffffffff60a81b1617178455426001557f49072639b22410ad80b7e5968b8b4fc20b3aefc410e681b79a1db7cb0b7ce33660208351428152a2805160018152426020820152a180f35b845163c05a87cf60e01b81529182015260248101859052604490fd5b634e487b7160e01b865260218252602486fd5b8351631fa9027960e01b8152338188019081526001600160a01b0390921660208301529081906040010390fd5b8480fd5b5050346101c257816003193601126101c257602090517f00000000000000000000000000000000000000000000000000000000000000008152f35b5050346101c257816003193601126101c2576020906001549051908152f35b5050346101c257816003193601126101c257517f00000000000000000000000000000000000000000000000000000000000000006001600160a01b03168152602090f35b5050346101c257816003193601126101c2579054905160089190911c6001600160a01b03168152602090f35b9050346104e257826003193601126104e2577f00000000000000000000000000000000000000000000000000000000000000006001600160a01b03811633036104b6575082549060ff8216818110156104a3576001810361048657847f40a180796b90921dd8508eb434c78206ca5c737a0d584582edf399bc9711d9e9856002866affffffffffffffffffffff60a81b1617835542600155805160028152426020820152a180f35b835163c05a87cf60e01b8152918201526001602482015260449150fd5b634e487b7160e01b855260218252602485fd5b9151631fa9027960e01b8152339181019182526001600160a01b03909216602082015281906040010390fd5b8280fd5b5050346101c257816003193601126101c257602090517f00000000000000000000000000000000000000000000000000000000000000008152f35b5050346101c257816003193601126101c257517f00000000000000000000000000000000000000000000000000000000000000006001600160a01b03168152602090f35b9050346104e25760203660031901126104e2577f00000000000000000000000000000000000000000000000000000000000000006001600160a01b03811633036104b65750825460ff81168281101561064a5760031461063b57827f40a180796b90921dd8508eb434c78206ca5c737a0d584582edf399bc9711d9e9939260037f3e6f997c58cb1412e97320e1a9863980eb67e8223fab083f2e77b8afb8c8c460936affffffffffffffffffffff60a81b1617865542600155815190358152426020820152a1805160038152426020820152a180f35b5090516319e0cd3d60e21b8152fd5b634e487b7160e01b855260218352602485fd5b5050346101c257816003193601126101c257517f00000000000000000000000000000000000000000000000000000000000000006001600160a01b03168152602090f35b5050346101c257816003193601126101c257517f00000000000000000000000000000000000000000000000000000000000000006001600160a01b03168152602090f35b5050346101c257816003193601126101c25761070a60ff602093541691518092610746565bf35b8490346101c257816003193601126101c2576020907f00000000000000000000000000000000000000000000000000000000000000008152f35b9060048210156107535752565b634e487b7160e01b5f52602160045260245ffdfea2646970667358221220bc19ebce411f8d87bc4c29bceb91ccdeee2cd5ecbc1339ddd9d11d51d15b1b3b64736f6c63430008140033",
  "immutableReferences": {
    "1489": [
      {
        "length": 32,
        "start": 1334
      }
    ],
    "1491": [
      {
        "length": 32,
        "start": 496
      },
      {
        "length": 32,
        "start": 899
      },
      {
        "length": 32,
        "start": 1010
      },
      {
        "length": 32,
        "start": 1402
      }
    ],
    "1493": [
      {
        "length": 32,
        "start": 213
      },
      {
        "length": 32,
        "start": 1278
      }
    ],
    "1495": [
      {
        "length": 32,
        "start": 248
      },
      {
        "length": 32,
        "start": 1827
      }
    ],
    "1497": [
      {
        "length": 32,
        "start": 294
      },
      {
        "length": 32,
        "start": 1718
      }
    ],
    "1499": [
      {
        "length": 32,
        "start": 336
      },
      {
        "length": 32,
        "start": 1650
      }
    ],
    "1501": [
      {
        "length": 32,
        "start": 376
      },
      {
        "length": 32,
        "start": 812
      }
    ]
  },
  "source": "// SPDX-License-Identifier: MIT\r\npragma solidity ^0.8.20;\r\n\r\nimport { Errors } from \"../libraries/Errors.sol\";\r\n\r\n/**\r\n * @title RawMaterial (Batch Contract)\r\n * @dev Data container for raw materials. State managed strictly by SupplyChainLogic.\r\n *      Uses standard naming conventions internally; public interface preserved.\r\n */\r\ncontract RawMaterial {\r\n    // --- Types ---\r\n    enum Status { Created, InTransit, Received, Destroyed }\r\n\r\n    // --- State (Immutable data set at creation) ---\r\n    address public immutable batchId; // Address of this contract\r\n    address public immutable supplyChainContract; // Address of the controlling Logic contract\r\n    bytes32 public immutable description;\r\n    uint public immutable quantity;\r\n    address public immutable supplier; // Creator of the batch\r\n    address public immutable intendedManufacturer; // Expected recipient\r\n    uint public immutable creationTime;\r\n\r\n    // --- State (Mutable data managed by SupplyChainLogic) ---\r\n    Status public status;\r\n    address public currentTransporter; // Assigned during transit\r\n    uint public lastUpdateTime; // Timestamp of the last state change\r\n\r\n    // --- Events (PascalCase - preserved) ---\r\n    event StatusChanged(Status newStatus, uint timestamp);\r\n    event TransporterAssigned(address indexed transporter, uint timestamp);\r\n    event BatchDestroyed(bytes32 reasonCode, uint timestamp);\r\n\r\n    // --- Modifiers ---\r\n    modifier onlySupplyChain() {\r\n        if (msg.sender != supplyChainContract) {\r\n            revert Errors.BatchUnauthorizedCaller(msg.sender, supplyChainContract);\r\n        }\r\n        _;\r\n    }\r\n\r\n    // --- Constructor ---\r\n    constructor(\r\n        address _supplyChainContract,\r\n        bytes32 _description,\r\n        uint _quantity,\r\n        address _supplier,\r\n        address _intendedManufacturer\r\n    ) {\r\n        // Basic address validation\r\n        if (_supplyChainContract == address(0)) revert Errors.AccessControlZeroAddress(); // Re-use error for invalid address\r\n        if (_supplier == address(0)) revert Errors.AccessControlZeroAddress();\r\n        if (_intendedManufacturer == address(0)) revert Errors.AccessControlZeroAddress();\r\n        // Quantity validation happens in Logic contract\r\n\r\n        batchId = address(this);\r\n        supplyChainContract = _supplyChainContract;\r\n        description = _description;\r\n        quantity = _quantity;\r\n        supplier = _supplier;\r\n        intendedManufacturer = _intendedManufacturer;\r\n        creationTime = block.timestamp;\r\n\r\n        status = Status.Created; // Initial status\r\n        lastUpdateTime = block.timestamp;\r\n        emit StatusChanged(status, lastUpdateTime);\r\n    }\r\n\r\n    // --- State Transitions (Called by SupplyChainLogic only) ---\r\n\r\n    /** @dev Sets the batch status to InTransit and assigns a transporter. */\r\n    function setInTransit(address _transporter) external onlySupplyChain {\r\n        // State machine check (Defense-in-depth)\r\n        if (status != Status.Created) {\r\n            revert Errors.BatchInvalidStateForAction(uint8(status), uint8(Status.Created));\r\n        }\r\n        // Transporter address(0) check done in Logic contract\r\n\r\n        status = Status.InTransit;\r\n        currentTransporter = _transporter;\r\n        lastUpdateTime = block.timestamp;\r\n        emit TransporterAssigned(_transporter, lastUpdateTime);\r\n        emit StatusChanged(status, lastUpdateTime);\r\n    }\r\n\r\n    /** @dev Sets the batch status to Received. */\r\n    function setReceived() external onlySupplyChain {\r\n        // State machine check (Defense-in-depth)\r\n        if (status != Status.InTransit) {\r\n            revert Errors.BatchInvalidStateForAction(uint8(status), uint8(Status.InTransit));\r\n        }\r\n\r\n        status = Status.Received;\r\n        currentTransporter = address(0); // Clear transporter upon receipt\r\n        lastUpdateTime = block.timestamp;\r\n        emit StatusChanged(status, lastUpdateTime);\r\n    }\r\n\r\n    /** @dev Sets the batch status to Destroyed. */\r\n    function setDestroyed(bytes32 _reasonCode) external onlySupplyChain {\r\n        // Prevent re-destroying (Idempotency)\r\n        if (status == Status.Destroyed) {\r\n            revert Errors.BatchAlreadyDestroyed();\r\n        }\r\n\r\n        status = Status.Destroyed;\r\n        currentTransporter = address(0); // Clear transporter\r\n        lastUpdateTime = block.timestamp;\r\n        emit BatchDestroyed(_reasonCode, lastUpdateTime);\r\n        emit StatusChanged(status, lastUpdateTime);\r\n    }\r\n\r\n    // --- View Function (Called by SupplyChainLogic via staticcall) ---\r\n\r\n    /** @dev Returns the current state details of the batch. */\r\n    function getDetails() external view returns (\r\n        bytes32 _description, uint _quantity, address _supplier, address _intendedManufacturer,\r\n        uint _creationTime, Status _status, address _currentTransporter, uint _lastUpdateTime\r\n    ) {\r\n        return (\r\n            description,\r\n            quantity,\r\n            supplier,\r\n            intendedManufacturer,\r\n            creationTime,\r\n            status,\r\n            currentTransporter,\r\n            lastUpdateTime\r\n        );\r\n    }\r\n}",
  "sourcePath": "C:\\Users\\rabra\\OneDrive\\Desktop\\full stack\\blockchain\\contracts\\batches\\RawMaterial.sol",
  "compiler": {
    "name": "solc",
    "version": "0.8.20+commit.a1b79de6.Emscripten.clang"
  },
  "schemaVersion": "3.4.16",
  "updatedAt": "2025-05-03T20:56:09.564Z",
  "devdoc": {
    "details": "Data container for raw materials. State managed strictly by SupplyChainLogic.      Uses standard naming conventions internally; public interface preserved.",
    "kind": "dev",
    "methods": {
      "getDetails()": {
        "details": "Returns the current state details of the batch. "
      },
      "setDestroyed(bytes32)": {
        "details": "Sets the batch status to Destroyed. "
      },
      "setInTransit(address)": {
        "details": "Sets the batch status to InTransit and assigns a transporter. "
      },
      "setReceived()": {
        "details": "Sets the batch status to Received. "
      }
    },
    "title": "RawMaterial (Batch Contract)",
    "version": 1
  },
  "userdoc": {
    "kind": "user",
    "methods": {},
    "version": 1
  }
}