{
  "contractName": "SupplyChainLogic",
  "abi": [
    {
      "inputs": [],
      "name": "AccessControlCannotManageCustomerRole",
      "type": "error"
    },
    {
      "inputs": [],
      "name": "AccessControlImmutableRole",
      "type": "error"
    },
    {
      "inputs": [
        {
          "internalType": "address",
          "name": "account",
          "type": "address"
        },
        {
          "internalType": "bytes32",
          "name": "role",
          "type": "bytes32"
        }
      ],
      "name": "AccessControlInvalidAdminRole",
      "type": "error"
    },
    {
      "inputs": [
        {
          "internalType": "address",
          "name": "account",
          "type": "address"
        },
        {
          "internalType": "bytes32",
          "name": "role",
          "type": "bytes32"
        }
      ],
      "name": "AccessControlMissingRole",
      "type": "error"
    },
    {
      "inputs": [],
      "name": "AccessControlOwnerOnly",
      "type": "error"
    },
    {
      "inputs": [],
      "name": "AccessControlZeroAddress",
      "type": "error"
    },
    {
      "inputs": [],
      "name": "InitializationRejected",
      "type": "error"
    },
    {
      "inputs": [
        {
          "internalType": "bytes32",
          "name": "reason",
          "type": "bytes32"
        }
      ],
      "name": "SCArgumentError",
      "type": "error"
    },
    {
      "inputs": [
        {
          "internalType": "bytes32",
          "name": "batchType",
          "type": "bytes32"
        }
      ],
      "name": "SCBatchCreationFailed",
      "type": "error"
    },
    {
      "inputs": [
        {
          "internalType": "address",
          "name": "batchAddress",
          "type": "address"
        },
        {
          "internalType": "bytes32",
          "name": "action",
          "type": "bytes32"
        }
      ],
      "name": "SCBatchTypeUnknownOrActionFailed",
      "type": "error"
    },
    {
      "inputs": [
        {
          "internalType": "address",
          "name": "target",
          "type": "address"
        },
        {
          "internalType": "bytes32",
          "name": "action",
          "type": "bytes32"
        },
        {
          "internalType": "bytes",
          "name": "errorData",
          "type": "bytes"
        }
      ],
      "name": "SCExternalCallFailed",
      "type": "error"
    },
    {
      "inputs": [
        {
          "internalType": "bytes32",
          "name": "context",
          "type": "bytes32"
        }
      ],
      "name": "SCInvalidAddress",
      "type": "error"
    },
    {
      "inputs": [
        {
          "internalType": "address",
          "name": "receiver",
          "type": "address"
        },
        {
          "internalType": "bytes32",
          "name": "requiredRole",
          "type": "bytes32"
        }
      ],
      "name": "SCInvalidReceiverRole",
      "type": "error"
    },
    {
      "inputs": [
        {
          "internalType": "address",
          "name": "batchAddress",
          "type": "address"
        },
        {
          "internalType": "uint8",
          "name": "currentStatus",
          "type": "uint8"
        },
        {
          "internalType": "bytes32",
          "name": "action",
          "type": "bytes32"
        }
      ],
      "name": "SCInvalidStateForAction",
      "type": "error"
    },
    {
      "inputs": [
        {
          "internalType": "address",
          "name": "rmAddress",
          "type": "address"
        },
        {
          "internalType": "bytes32",
          "name": "reason",
          "type": "bytes32"
        }
      ],
      "name": "SCRawMaterialValidationFailed",
      "type": "error"
    },
    {
      "inputs": [
        {
          "internalType": "address",
          "name": "batchAddress",
          "type": "address"
        },
        {
          "internalType": "address",
          "name": "expected",
          "type": "address"
        },
        {
          "internalType": "address",
          "name": "actual",
          "type": "address"
        }
      ],
      "name": "SCReceiverMismatch",
      "type": "error"
    },
    {
      "inputs": [
        {
          "internalType": "address",
          "name": "target",
          "type": "address"
        },
        {
          "internalType": "bytes32",
          "name": "role",
          "type": "bytes32"
        },
        {
          "internalType": "bytes32",
          "name": "reason",
          "type": "bytes32"
        }
      ],
      "name": "SCRoleCheckFailed",
      "type": "error"
    },
    {
      "inputs": [
        {
          "internalType": "address",
          "name": "actor",
          "type": "address"
        },
        {
          "internalType": "bytes32",
          "name": "reason",
          "type": "bytes32"
        }
      ],
      "name": "SCUnauthorizedActor",
      "type": "error"
    },
    {
      "anonymous": false,
      "inputs": [
        {
          "indexed": true,
          "internalType": "bytes32",
          "name": "batchType",
          "type": "bytes32"
        },
        {
          "indexed": true,
          "internalType": "address",
          "name": "batchAddress",
          "type": "address"
        },
        {
          "indexed": true,
          "internalType": "address",
          "name": "creator",
          "type": "address"
        },
        {
          "indexed": false,
          "internalType": "uint256",
          "name": "timestamp",
          "type": "uint256"
        }
      ],
      "name": "BatchCreated",
      "type": "event"
    },
    {
      "anonymous": false,
      "inputs": [
        {
          "indexed": true,
          "internalType": "address",
          "name": "batchAddress",
          "type": "address"
        },
        {
          "indexed": true,
          "internalType": "address",
          "name": "actor",
          "type": "address"
        },
        {
          "indexed": false,
          "internalType": "bytes32",
          "name": "reasonCode",
          "type": "bytes32"
        },
        {
          "indexed": false,
          "internalType": "uint256",
          "name": "timestamp",
          "type": "uint256"
        }
      ],
      "name": "BatchDestroyed",
      "type": "event"
    },
    {
      "anonymous": false,
      "inputs": [
        {
          "indexed": true,
          "internalType": "address",
          "name": "batchAddress",
          "type": "address"
        },
        {
          "indexed": true,
          "internalType": "address",
          "name": "finalOwner",
          "type": "address"
        },
        {
          "indexed": false,
          "internalType": "uint256",
          "name": "timestamp",
          "type": "uint256"
        }
      ],
      "name": "BatchFinalized",
      "type": "event"
    },
    {
      "anonymous": false,
      "inputs": [
        {
          "indexed": true,
          "internalType": "address",
          "name": "batchAddress",
          "type": "address"
        },
        {
          "indexed": true,
          "internalType": "uint256",
          "name": "index",
          "type": "uint256"
        },
        {
          "indexed": true,
          "internalType": "address",
          "name": "actor",
          "type": "address"
        },
        {
          "indexed": false,
          "internalType": "bytes32",
          "name": "eventCode",
          "type": "bytes32"
        },
        {
          "indexed": false,
          "internalType": "uint256",
          "name": "timestamp",
          "type": "uint256"
        },
        {
          "indexed": false,
          "internalType": "bytes32",
          "name": "currentLogHash",
          "type": "bytes32"
        }
      ],
      "name": "LogEntryCreated",
      "type": "event"
    },
    {
      "anonymous": false,
      "inputs": [
        {
          "indexed": true,
          "internalType": "address",
          "name": "previousOwner",
          "type": "address"
        },
        {
          "indexed": true,
          "internalType": "address",
          "name": "newOwner",
          "type": "address"
        }
      ],
      "name": "OwnershipTransferred",
      "type": "event"
    },
    {
      "anonymous": false,
      "inputs": [
        {
          "indexed": true,
          "internalType": "address",
          "name": "batchAddress",
          "type": "address"
        },
        {
          "indexed": true,
          "internalType": "address",
          "name": "receiver",
          "type": "address"
        },
        {
          "indexed": true,
          "internalType": "address",
          "name": "sender",
          "type": "address"
        },
        {
          "indexed": false,
          "internalType": "uint256",
          "name": "timestamp",
          "type": "uint256"
        }
      ],
      "name": "PackageReceived",
      "type": "event"
    },
    {
      "anonymous": false,
      "inputs": [
        {
          "indexed": true,
          "internalType": "bytes32",
          "name": "role",
          "type": "bytes32"
        },
        {
          "indexed": true,
          "internalType": "bytes32",
          "name": "previousAdminRole",
          "type": "bytes32"
        },
        {
          "indexed": true,
          "internalType": "bytes32",
          "name": "newAdminRole",
          "type": "bytes32"
        }
      ],
      "name": "RoleAdminChanged",
      "type": "event"
    },
    {
      "anonymous": false,
      "inputs": [
        {
          "indexed": true,
          "internalType": "bytes32",
          "name": "role",
          "type": "bytes32"
        },
        {
          "indexed": true,
          "internalType": "address",
          "name": "account",
          "type": "address"
        },
        {
          "indexed": true,
          "internalType": "address",
          "name": "sender",
          "type": "address"
        }
      ],
      "name": "RoleGranted",
      "type": "event"
    },
    {
      "anonymous": false,
      "inputs": [
        {
          "indexed": true,
          "internalType": "bytes32",
          "name": "role",
          "type": "bytes32"
        },
        {
          "indexed": true,
          "internalType": "address",
          "name": "account",
          "type": "address"
        },
        {
          "indexed": true,
          "internalType": "address",
          "name": "sender",
          "type": "address"
        }
      ],
      "name": "RoleRevoked",
      "type": "event"
    },
    {
      "anonymous": false,
      "inputs": [
        {
          "indexed": true,
          "internalType": "address",
          "name": "batchAddress",
          "type": "address"
        },
        {
          "indexed": true,
          "internalType": "address",
          "name": "initiator",
          "type": "address"
        },
        {
          "indexed": true,
          "internalType": "address",
          "name": "transporter",
          "type": "address"
        },
        {
          "indexed": false,
          "internalType": "address",
          "name": "receiver",
          "type": "address"
        },
        {
          "indexed": false,
          "internalType": "uint256",
          "name": "timestamp",
          "type": "uint256"
        }
      ],
      "name": "TransferInitiated",
      "type": "event"
    },
    {
      "inputs": [],
      "name": "ADMIN_ROLE",
      "outputs": [
        {
          "internalType": "bytes32",
          "name": "",
          "type": "bytes32"
        }
      ],
      "stateMutability": "view",
      "type": "function",
      "constant": true
    },
    {
      "inputs": [],
      "name": "CUSTOMER_ROLE",
      "outputs": [
        {
          "internalType": "bytes32",
          "name": "",
          "type": "bytes32"
        }
      ],
      "stateMutability": "view",
      "type": "function",
      "constant": true
    },
    {
      "inputs": [],
      "name": "DISTRIBUTOR_ROLE",
      "outputs": [
        {
          "internalType": "bytes32",
          "name": "",
          "type": "bytes32"
        }
      ],
      "stateMutability": "view",
      "type": "function",
      "constant": true
    },
    {
      "inputs": [],
      "name": "MANUFACTURER_ROLE",
      "outputs": [
        {
          "internalType": "bytes32",
          "name": "",
          "type": "bytes32"
        }
      ],
      "stateMutability": "view",
      "type": "function",
      "constant": true
    },
    {
      "inputs": [],
      "name": "SUPPLIER_ROLE",
      "outputs": [
        {
          "internalType": "bytes32",
          "name": "",
          "type": "bytes32"
        }
      ],
      "stateMutability": "view",
      "type": "function",
      "constant": true
    },
    {
      "inputs": [],
      "name": "TRANSPORTER_ROLE",
      "outputs": [
        {
          "internalType": "bytes32",
          "name": "",
          "type": "bytes32"
        }
      ],
      "stateMutability": "view",
      "type": "function",
      "constant": true
    },
    {
      "inputs": [],
      "name": "TYPE_MEDICINE",
      "outputs": [
        {
          "internalType": "bytes32",
          "name": "",
          "type": "bytes32"
        }
      ],
      "stateMutability": "view",
      "type": "function",
      "constant": true
    },
    {
      "inputs": [],
      "name": "TYPE_RAW_MATERIAL",
      "outputs": [
        {
          "internalType": "bytes32",
          "name": "",
          "type": "bytes32"
        }
      ],
      "stateMutability": "view",
      "type": "function",
      "constant": true
    },
    {
      "inputs": [],
      "name": "WHOLESALER_ROLE",
      "outputs": [
        {
          "internalType": "bytes32",
          "name": "",
          "type": "bytes32"
        }
      ],
      "stateMutability": "view",
      "type": "function",
      "constant": true
    },
    {
      "inputs": [
        {
          "internalType": "address",
          "name": "",
          "type": "address"
        },
        {
          "internalType": "uint256",
          "name": "",
          "type": "uint256"
        }
      ],
      "name": "batchLogs",
      "outputs": [
        {
          "internalType": "uint256",
          "name": "index",
          "type": "uint256"
        },
        {
          "internalType": "address",
          "name": "actor",
          "type": "address"
        },
        {
          "internalType": "address",
          "name": "involvedParty",
          "type": "address"
        },
        {
          "internalType": "bytes32",
          "name": "eventCode",
          "type": "bytes32"
        },
        {
          "internalType": "int256",
          "name": "latitude",
          "type": "int256"
        },
        {
          "internalType": "int256",
          "name": "longitude",
          "type": "int256"
        },
        {
          "internalType": "uint256",
          "name": "timestamp",
          "type": "uint256"
        },
        {
          "internalType": "bytes32",
          "name": "dataHash",
          "type": "bytes32"
        },
        {
          "internalType": "bytes32",
          "name": "previousLogHash",
          "type": "bytes32"
        }
      ],
      "stateMutability": "view",
      "type": "function",
      "constant": true
    },
    {
      "inputs": [
        {
          "internalType": "address",
          "name": "",
          "type": "address"
        }
      ],
      "name": "batchType",
      "outputs": [
        {
          "internalType": "bytes32",
          "name": "",
          "type": "bytes32"
        }
      ],
      "stateMutability": "view",
      "type": "function",
      "constant": true
    },
    {
      "inputs": [
        {
          "internalType": "address",
          "name": "",
          "type": "address"
        }
      ],
      "name": "lastLogHashForBatch",
      "outputs": [
        {
          "internalType": "bytes32",
          "name": "",
          "type": "bytes32"
        }
      ],
      "stateMutability": "view",
      "type": "function",
      "constant": true
    },
    {
      "inputs": [],
      "name": "owner",
      "outputs": [
        {
          "internalType": "address",
          "name": "",
          "type": "address"
        }
      ],
      "stateMutability": "view",
      "type": "function",
      "constant": true
    },
    {
      "inputs": [
        {
          "internalType": "address",
          "name": "deployer",
          "type": "address"
        }
      ],
      "name": "initialize",
      "outputs": [],
      "stateMutability": "nonpayable",
      "type": "function"
    },
    {
      "inputs": [
        {
          "internalType": "bytes32",
          "name": "_description",
          "type": "bytes32"
        },
        {
          "internalType": "uint256",
          "name": "_quantity",
          "type": "uint256"
        },
        {
          "internalType": "address",
          "name": "_intendedManufacturer",
          "type": "address"
        },
        {
          "internalType": "int256",
          "name": "_latitude",
          "type": "int256"
        },
        {
          "internalType": "int256",
          "name": "_longitude",
          "type": "int256"
        }
      ],
      "name": "createRawMaterial",
      "outputs": [
        {
          "internalType": "address",
          "name": "batchAddress",
          "type": "address"
        }
      ],
      "stateMutability": "nonpayable",
      "type": "function"
    },
    {
      "inputs": [
        {
          "internalType": "bytes32",
          "name": "_description",
          "type": "bytes32"
        },
        {
          "internalType": "uint256",
          "name": "_quantity",
          "type": "uint256"
        },
        {
          "internalType": "address[]",
          "name": "_rawMaterialBatchIds",
          "type": "address[]"
        },
        {
          "internalType": "uint256",
          "name": "_expiryDate",
          "type": "uint256"
        },
        {
          "internalType": "int256",
          "name": "_latitude",
          "type": "int256"
        },
        {
          "internalType": "int256",
          "name": "_longitude",
          "type": "int256"
        }
      ],
      "name": "createMedicine",
      "outputs": [
        {
          "internalType": "address",
          "name": "batchAddress",
          "type": "address"
        }
      ],
      "stateMutability": "nonpayable",
      "type": "function"
    },
    {
      "inputs": [
        {
          "internalType": "address",
          "name": "_batchAddress",
          "type": "address"
        },
        {
          "internalType": "address",
          "name": "_transporter",
          "type": "address"
        },
        {
          "internalType": "address",
          "name": "_receiver",
          "type": "address"
        },
        {
          "internalType": "int256",
          "name": "_latitude",
          "type": "int256"
        },
        {
          "internalType": "int256",
          "name": "_longitude",
          "type": "int256"
        }
      ],
      "name": "initiateTransfer",
      "outputs": [],
      "stateMutability": "nonpayable",
      "type": "function"
    },
    {
      "inputs": [
        {
          "internalType": "address",
          "name": "_batchAddress",
          "type": "address"
        },
        {
          "internalType": "int256",
          "name": "_latitude",
          "type": "int256"
        },
        {
          "internalType": "int256",
          "name": "_longitude",
          "type": "int256"
        }
      ],
      "name": "receivePackage",
      "outputs": [],
      "stateMutability": "nonpayable",
      "type": "function"
    },
    {
      "inputs": [
        {
          "internalType": "address",
          "name": "_batchAddress",
          "type": "address"
        },
        {
          "internalType": "int256",
          "name": "_latitude",
          "type": "int256"
        },
        {
          "internalType": "int256",
          "name": "_longitude",
          "type": "int256"
        }
      ],
      "name": "finalizeMedicineBatch",
      "outputs": [],
      "stateMutability": "nonpayable",
      "type": "function"
    },
    {
      "inputs": [
        {
          "internalType": "address",
          "name": "_batchAddress",
          "type": "address"
        },
        {
          "internalType": "bytes32",
          "name": "_reasonCode",
          "type": "bytes32"
        },
        {
          "internalType": "int256",
          "name": "_latitude",
          "type": "int256"
        },
        {
          "internalType": "int256",
          "name": "_longitude",
          "type": "int256"
        }
      ],
      "name": "markBatchDestroyed",
      "outputs": [],
      "stateMutability": "nonpayable",
      "type": "function"
    },
    {
      "inputs": [
        {
          "internalType": "bytes32",
          "name": "role",
          "type": "bytes32"
        },
        {
          "internalType": "address",
          "name": "account",
          "type": "address"
        }
      ],
      "name": "grantRole",
      "outputs": [],
      "stateMutability": "nonpayable",
      "type": "function"
    },
    {
      "inputs": [
        {
          "internalType": "bytes32",
          "name": "role",
          "type": "bytes32"
        },
        {
          "internalType": "address",
          "name": "account",
          "type": "address"
        }
      ],
      "name": "revokeRole",
      "outputs": [],
      "stateMutability": "nonpayable",
      "type": "function"
    },
    {
      "inputs": [
        {
          "internalType": "bytes32",
          "name": "role",
          "type": "bytes32"
        },
        {
          "internalType": "bytes32",
          "name": "adminRole",
          "type": "bytes32"
        }
      ],
      "name": "setRoleAdmin",
      "outputs": [],
      "stateMutability": "nonpayable",
      "type": "function"
    },
    {
      "inputs": [
        {
          "internalType": "address",
          "name": "newOwner",
          "type": "address"
        }
      ],
      "name": "transferOwnership",
      "outputs": [],
      "stateMutability": "nonpayable",
      "type": "function"
    },
    {
      "inputs": [
        {
          "internalType": "bytes32",
          "name": "role",
          "type": "bytes32"
        },
        {
          "internalType": "address",
          "name": "account",
          "type": "address"
        }
      ],
      "name": "hasRole",
      "outputs": [
        {
          "internalType": "bool",
          "name": "",
          "type": "bool"
        }
      ],
      "stateMutability": "view",
      "type": "function",
      "constant": true
    },
    {
      "inputs": [
        {
          "internalType": "bytes32",
          "name": "role",
          "type": "bytes32"
        }
      ],
      "name": "getRoleAdmin",
      "outputs": [
        {
          "internalType": "bytes32",
          "name": "",
          "type": "bytes32"
        }
      ],
      "stateMutability": "view",
      "type": "function",
      "constant": true
    },
    {
      "inputs": [
        {
          "internalType": "address",
          "name": "_batchAddress",
          "type": "address"
        }
      ],
      "name": "getRawMaterialDetails",
      "outputs": [
        {
          "internalType": "bytes32",
          "name": "description",
          "type": "bytes32"
        },
        {
          "internalType": "uint256",
          "name": "quantity",
          "type": "uint256"
        },
        {
          "internalType": "address",
          "name": "supplier",
          "type": "address"
        },
        {
          "internalType": "address",
          "name": "intendedManufacturer",
          "type": "address"
        },
        {
          "internalType": "uint256",
          "name": "creationTime",
          "type": "uint256"
        },
        {
          "internalType": "enum RawMaterial.Status",
          "name": "status",
          "type": "uint8"
        },
        {
          "internalType": "address",
          "name": "currentTransporter",
          "type": "address"
        },
        {
          "internalType": "uint256",
          "name": "lastUpdateTime",
          "type": "uint256"
        }
      ],
      "stateMutability": "view",
      "type": "function",
      "constant": true
    },
    {
      "inputs": [
        {
          "internalType": "address",
          "name": "_batchAddress",
          "type": "address"
        }
      ],
      "name": "getMedicineDetails",
      "outputs": [
        {
          "internalType": "bytes32",
          "name": "description",
          "type": "bytes32"
        },
        {
          "internalType": "uint256",
          "name": "quantity",
          "type": "uint256"
        },
        {
          "internalType": "address[]",
          "name": "rawMaterialBatchIds",
          "type": "address[]"
        },
        {
          "internalType": "address",
          "name": "manufacturer",
          "type": "address"
        },
        {
          "internalType": "uint256",
          "name": "creationTime",
          "type": "uint256"
        },
        {
          "internalType": "uint256",
          "name": "expiryDate",
          "type": "uint256"
        },
        {
          "internalType": "enum Medicine.Status",
          "name": "status",
          "type": "uint8"
        },
        {
          "internalType": "address",
          "name": "currentOwner",
          "type": "address"
        },
        {
          "internalType": "address",
          "name": "currentTransporter",
          "type": "address"
        },
        {
          "internalType": "address",
          "name": "currentDestination",
          "type": "address"
        },
        {
          "internalType": "uint256",
          "name": "lastUpdateTime",
          "type": "uint256"
        }
      ],
      "stateMutability": "view",
      "type": "function",
      "constant": true
    },
    {
      "inputs": [
        {
          "internalType": "address",
          "name": "_batchAddress",
          "type": "address"
        }
      ],
      "name": "getTransactionHistory",
      "outputs": [
        {
          "components": [
            {
              "internalType": "uint256",
              "name": "index",
              "type": "uint256"
            },
            {
              "internalType": "address",
              "name": "actor",
              "type": "address"
            },
            {
              "internalType": "address",
              "name": "involvedParty",
              "type": "address"
            },
            {
              "internalType": "bytes32",
              "name": "eventCode",
              "type": "bytes32"
            },
            {
              "internalType": "int256",
              "name": "latitude",
              "type": "int256"
            },
            {
              "internalType": "int256",
              "name": "longitude",
              "type": "int256"
            },
            {
              "internalType": "uint256",
              "name": "timestamp",
              "type": "uint256"
            },
            {
              "internalType": "bytes32",
              "name": "dataHash",
              "type": "bytes32"
            },
            {
              "internalType": "bytes32",
              "name": "previousLogHash",
              "type": "bytes32"
            }
          ],
          "internalType": "struct SupplyChainLogic.TxnLog[]",
          "name": "",
          "type": "tuple[]"
        }
      ],
      "stateMutability": "view",
      "type": "function",
      "constant": true
    },
    {
      "inputs": [
        {
          "internalType": "string",
          "name": "_roleName",
          "type": "string"
        }
      ],
      "name": "getRoleIdentifier",
      "outputs": [
        {
          "internalType": "bytes32",
          "name": "",
          "type": "bytes32"
        }
      ],
      "stateMutability": "pure",
      "type": "function",
      "constant": true
    }
  ],
  "bytecode": "0x60808060405234610016576157ba908161001b8239f35b5f80fdfe608080604052600436101562000013575f80fd5b5f90813560e01c9081631e4e00911462002fd157508063204d79231462002fa6578063248a9ca31462002f83578063252e57c314620029bc5780632f2ff15d14620028ab5780634eabbe7714620028805780635a8df87314620026b657806372c4bfc2146200267957806375b238fc146200264e57806381bd2224146200262357806384a8b26214620021705780638da5cb5b146200214757806391d148541462002110578063965288b014620020e5578063968d560414620020ba578063a29508fc146200208f578063a3b2b49a1462001fd7578063b01339c31462001851578063c02f869f1462001735578063c35292c314620012b6578063c4d66de814620011a0578063c810ca211462000b1c578063cd05f6c814620005f7578063d20cf0e81462000474578063d547741f146200031a578063d7cb8d3414620002ef578063eb7b82c914620002b2578063f0bd87cc1462000287578063f2fde38b14620001f05763fd840d461462000187575f80fd5b34620001ed576020366003190112620001ed576004356001600160401b0391828211620001ed5736602383011215620001ed578160040135928311620001ed573660248484010111620001ed576020620001e5846024850162003b59565b604051908152f35b80fd5b5034620001ed576020366003190112620001ed576200020e620030a2565b8154906001600160a01b0390818316330362000275571690811562000263576001600160a01b03191681178255337f8be0079c531659141344cd1fd0a4f28419497f9722a3daafe3b4186f6b6457e08380a380f35b6040516332cdae1b60e01b8152600490fd5b6040516301763bff60e11b8152600490fd5b5034620001ed5780600319360112620001ed5760206040515f80516020620056c58339815191528152f35b5034620001ed576020366003190112620001ed576020906040906001600160a01b03620002de620030a2565b168152600683522054604051908152f35b5034620001ed5780600319360112620001ed5760206040515f80516020620057058339815191528152f35b5034620001ed576040366003190112620001ed576004356200033b620030bd565b5f805160206200576583398151915282148080156200045c575b6200044a576001600160a01b039182169182156200026357816200043b575b50620002755762000390336200038a846200395c565b620033d7565b156200040357818352600160205260408320815f5260205260ff60405f205416620003b9578280f35b818352600160205260408320815f5260205260405f2060ff19815416905533917ff6391f5c32d9c69d2a47ea670b442974b53935d1edc7fd64eb21e047a839171b8480a45f808280f35b6200043762000412836200395c565b60405163dab24d5d60e01b815233600482015260248101919091529081906044820190565b0390fd5b90508354163314155f62000374565b604051638dab38d560e01b8152600490fd5b505f8051602062005725833981519152831462000355565b5034620001ed5760209081600319360112620001ed576001600160a01b039190826200049f620030a2565b1681526004825260408120908154620004b8816200383f565b90620004c86040519283620031ed565b8082528482018094845285842084915b8383106200057557505050506040519380850191818652518092526040850193925b828110620005085785850386f35b83518051865280830151881686840152604080820151891690870152606080820151908701526080808201519087015260a0808201519087015260c0808201519087015260e0808201519087015261010090810151908601526101209094019392810192600101620004fa565b60098860019260409a97989a516200058d816200317b565b855481528c8587015416838201528c60028701541660408201526003860154606082015260048601546080820152600586015460a0820152600686015460c0820152600786015460e0820152600886015461010082015281520192019201919096949396620004d8565b5034620001ed5762000609366200313b565b9192916001600160a01b038085169291831562000ae4578385526006602052604085205490811562000aa55760405160208101906040825260076060820152665245434549564560c81b6080820152336040820152608081526200066d8162003198565b5190209186879188905f805160206200564583398151915281145f14620008cb5750505050604051936307ddfc9d60e51b855261010080866004818a5afa8896818a918b948c9462000884575b5050620006eb578a620006cc62003549565b604051631b9577f160e31b815291829162000437916004840162003689565b919096913387821603620008535750620007046200345f565b60048110156200083f5760018103620007f8575094863b15620007f4576040516301cacc3360e61b8152888082600481838d5af19182620007d8575b50506200077157886200075262003549565b604051631b9577f160e31b815291829162000437916004840162003775565b97620007a694959697987ff43de1032dc4b1f83a8ea9a075d2223ef915cce028148fa5b055c2aa88939be0915b339062003996565b6040519142835216917fbd03eb97a9836c01a29e97fedda287dfd99148db3e233ca0e20dfc3afe42de7660203393a480f35b620007e39062003167565b620007f057885f62000740565b8880fd5b8780fd5b8760ff606492604051926316b2f69d60e21b845260048401521660248201527f56ba99c71dd831c020a4dedbc22cd351ee9bc81378d14ca31c0d5692594d1b1c6044820152fd5b634e487b7160e01b89526021600452602489fd5b60405163016ea26560e71b81526001600160a01b038c81166004830152919091166024820152336044820152606490fd5b925092509750620008ae9250803d10620008c3575b620008a58183620031ed565b810190620034e8565b509550929199935050979092915f80620006ba565b503d62000899565b9296925f805160206200562583398151915214620008f3575b620007a695969798996200079e565b50506040516307ddfc9d60e51b815294508685600481895afa9487958890808a938b9262000a69575b506200094c578a6200092d62003549565b604051631b9577f160e31b81529182916200043791600484016200358b565b90919690338782160362000853575060098110156200083f576001810362000a1d57506002906200098b5f80516020620057058339815191526200349e565b9590873b15620007f057604051632d9bee3960e11b815290620009b3906004830190620030eb565b336024820152888082604481838d5af1918262000a05575b5050620009dd57886200075262003549565b7fe663177cfc67b87d3774c45fa957fc3c608669295ca1a054cfc4e2107d579cb290620008e4565b62000a109062003167565b620007f057885f620009cb565b6003810362000a4357506004906200098b5f80516020620056c58339815191526200349e565b60058103620007f857506006906200098b5f80516020620057258339815191526200349e565b925097505062000a8e91503d808a833e62000a858183620031ed565b810190620038c7565b50985096509b945092505050979192905f6200091c565b60405163a8449b6160e01b8152600481018690527f56ba99c71dd831c020a4dedbc22cd351ee9bc81378d14ca31c0d5692594d1b1c6024820152604490fd5b604051633a2dbb6f60e21b81527f286239ce7a4e2666d0d792f9b54bb56dd5b268c56670d85660923cc3fdd066886004820152602490fd5b5034620001ed5760c0366003190112620001ed5760446001600160401b039182823511620001ed573660238335011215620001ed578282356004013511620001ed5736602483356004013560051b8435010111620001ed5762000b7e6200345f565b813560040135156200116857602435156200113057426064351115620010f857805b823560040135811062000eed575060405161104093818581011090858301111762000ed9578362003c9482393084820152600435602085830101526024356040858301015260c0606085830101528060248435019462000c0c60c08284010186356004013588620037f4565b90336080828501015260a06064359184010152039082f092831562000ecc576001600160a01b0393841692831562000ea65762000cad62000c969184866040965260066020525f805160206200562583398151915295869120556040519283916020830195600435875260243560408501526080606085015260a0840191356004013590620037f4565b606435608083015203601f198101835282620031ed565b519020825f52600560205260405f2054600460205260405f2080549160405160208101918483526001600160601b03193360601b1660408301525f60548301527f89e9ad293be217547409da633e278b2fa8c4066c8b9900ba62bb24aad2a15f14958660688401526084359384608885015260a435938460a88201524260c88201528260e88201526101088481830152815262000d4a81620031b4565b519020946040519362000d5d856200317b565b8785526020850195338752604086015f815260608701908b82526080880192835260a0880193845260c088019442865260e089019687526101008901978852600160401b8c101562000e92578b62000dbb916001820181556200310d565b99909962000e7f5760209f600899518b558060018c01925116916001600160601b0360a01b928382541617905560028b019251169082541617905551600388015551600487015551600586015551600685015551600784015551910155845f52600586528060405f205560405192835242868401526040830152835f80516020620056e583398151915260603394a481604051914283527f0b77650363b744933f1f4ffbb8f5524878e14fbaea1a1ac6f37e1498908db353853394a4604051908152f35b634e487b7160e01b5f525f60045260245ffd5b634e487b7160e01b5f52604160045260245ffd5b6040516341cb2f2360e11b81525f80516020620056258339815191526004820152602490fd5b50604051903d90823e3d90fd5b634e487b7160e01b82526041600452602482fd5b8235600582901b0160240135939291906001600160a01b0380861690818703620010f4578115620010bc5781845260066020525f80516020620056458339815191526040852054036200107e576040516307ddfc9d60e51b815261010091908281600481875afa8091879488936200104c575b505062000f725788620006cc62003549565b9091929394959697506004811015620010385760020362000ffa573391160362000fbd57505f19811462000fa95760010162000ba0565b634e487b7160e01b82526011600452602482fd5b839060405190633de338ef60e21b825260048201527ff90c3a3c059e2e4439c00711b6a97508df4b89405adce7aa02afc7da90cae4906024820152fd5b604051633de338ef60e21b8152600481018490527fbb2ab8705ca6c09dbca09b95cc1a29bbae1ed39ffc8dc5fbf458aa6e3fc3140460248201528690fd5b634e487b7160e01b86526021600452602486fd5b80919295506200106b9350903d10620008c357620008a58183620031ed565b50509694505091505092905f8062000f60565b604051633de338ef60e21b8152600481018390527fd7e58ce0dc36caab08addc708381544b30ed0abdf99458e854fe3bc09cc11f6360248201528590fd5b604051633a2dbb6f60e21b81527ffb1d5010d6b0458330f87a082e5f853315984e51a5c261b7b7138dc68d2379096004820152602490fd5b8380fd5b604051634aeee32b60e01b81527ffdec5c6f0767dd904b20a4c786ee1806010c9df9a69922df29f8d2ee82e954316004820152602490fd5b604051634aeee32b60e01b81527fde6fdf48511b2867fa79ee057db9fa722e704ead3140761adc270b6b2c3fdf766004820152602490fd5b604051634aeee32b60e01b81527f02bb6d2e4345ec6d078420cb8e229e4c922423b0f475c9a2af5c93f34bf2fc3d6004820152602490fd5b5034620001ed576020366003190112620001ed57620011be620030a2565b60035460ff8116620012a45760ff19166001176003556001600160a01b031680156200026357806001600160601b0360a01b8354161782555f8051602062005745833981519152825260026020525f80516020620057658339815191528060408420555f80516020620056a583398151915283528060408420555f805160206200568583398151915283528060408420555f805160206200570583398151915283528060408420555f80516020620056c583398151915283526040832055817f8be0079c531659141344cd1fd0a4f28419497f9722a3daafe3b4186f6b6457e08180a380f35b6040516318b34ac560e01b8152600490fd5b5034620001ed57620012c8366200313b565b91926001600160a01b03808516939290841562000ae457848352602093600685525f8051602062005625833981519152604085205403620016f6576040516307ddfc9d60e51b815284816004818a5afa8086928792620016c7575b506200133457886200092d62003549565b8333911603620016895760098110156200167557600681036200162e5750853b15620010f457604051632daf1e8160e21b8152848082600481838c5af1918262001612575b5050620014185784866200138c62003549565b90604051928391631b9577f160e31b835260048301527fb604882a6e6dcfccdddbb19394c5dc0a20fbf150179bcfd976acdcec7efe57f36024830152606060448301528251908160648401525f935b828510620013fe575050608492505f838284010152601f80199101168101030190fd5b8481018201518686016084015293810193859350620013db565b6040959395518581019060408252600960608201526811925390531256915160ba1b608082015233604082015260808152620014548162003198565b51902091845f526005865260405f2054936004875260405f2094855494604051968988018781526001600160601b03193360601b1660408a01525f60548a01527f0cb1cbd89f0b3067076b793fed6e29ca3a6080fd84e6d38c7832d7546ac83c5f988960688201528560888201528760a88201524260c88201528360e882015261010885818301528152620014e981620031b4565b5190209560405194620014fc866200317b565b8886528b8601338152604087015f815260608801918c83526080890193845260a0890194855260c089019542875260e08a019788526101008a01988952600160401b8d101562000e92578c62001558916001820181556200310d565b9a909a62000e7f57600899518b558060018c01925116916001600160601b0360a01b928382541617905560028b019251169082541617905551600388015551600487015551600586015551600685015551600784015551910155835f52600585528060405f205560405192835242858401526040830152825f80516020620056e583398151915260603394a47f7550fdb712ef60e6e1cbf9f9494f0813427e9a11ceb17efb4e8f89ec4012a643604051924284523393a380f35b6200161d9062003167565b6200162a57848862001379565b8480fd5b8660ff606492604051926316b2f69d60e21b845260048401521660248201527fb604882a6e6dcfccdddbb19394c5dc0a20fbf150179bcfd976acdcec7efe57f36044820152fd5b634e487b7160e01b85526021600452602485fd5b60405163772d72df60e11b81523360048201527f399e4c824df95a6daf23136598a04815dbcfabe69d13dc159d7381d8dfb6fb816024820152604490fd5b909250620016e191503d8088833e62000a858183620031ed565b50505097965094505050505091905f62001323565b60405163a8449b6160e01b8152600481018790527fb604882a6e6dcfccdddbb19394c5dc0a20fbf150179bcfd976acdcec7efe57f36024820152604490fd5b5034620001ed576020366003190112620001ed5762001753620030a2565b90808060405160208101906307ddfc9d60e51b8252600481526200177781620031d1565b5190855afa916200178762003549565b92156200183157506101009182818051810103126200182d57602081015191604082015191620017ba60608201620034d3565b91620017c960808301620034d3565b9260a08301519060c0840151926004841015620001ed575087620017f060e08601620034d3565b94015195604051978852602088015260018060a01b0394858092166040890152166060870152608086015260a08501521660c083015260e0820152f35b5080fd5b604051631b9577f160e31b81529283925062000437916004840162003689565b5034620001ed5760a0366003190112620001ed576200186f620030a2565b906200187a620030bd565b62001884620030d4565b6001600160a01b0384811690811562000ae45780841693841562001f9f5781841693841562001f6757620018b882620032b3565b1562001f14578387526006602052604087205490811562001ee7576040519360208501948886528760408201526040815260608101958187106001600160401b0388111762000e92578660405281519020958a945f805160206200564583398151915281145f1462001bc95750506040516307ddfc9d60e51b8152929350610100905080836004818a5afa92838b918c938d9662001b98575b505062001963578b620006cc62003549565b909290823391160362001b5a57600481101562001b46578062001b115750869082160362001adf575062001997906200326b565b1562001a8c57823b1562001a885760405163f356e93f60e01b81526004810186905286808260248183895af1918262001a6c575b5050620019fc5786620019dd62003549565b604051631b9577f160e31b815291829162000437916004840162003708565b62001a3792939495967fc9c4faacb16b02db1bfb8ab71416591a98400def26bb74f4faf06f20feb89ce35b6084359260643592339062003996565b6040519182524260208301527fe3ae95e88ea3f4ef8bee453e29edab14d2b582b66a65af6d0aa0292d00585d7860403393a480f35b62001a779062003167565b62001a8457865f620019cb565b8680fd5b8580fd5b6040516315beae7360e31b8152600481018590525f805160206200568583398151915260248201527f4b3220c5d0318ae8272ca7c0385952c2e61f81654ebb7c78ac6876eb9803d7a16044820152606490fd5b60405163016ea26560e71b81526001600160a01b038a8116600483015291821660248201529082166044820152606490fd5b8660ff606492604051926316b2f69d60e21b845260048401521660248201525f80516020620056658339815191526044820152fd5b634e487b7160e01b8a52602160045260248afd5b60405163772d72df60e11b81523360048201527f1087cb85eb55cf7f860f099b2332eb5e8a55299b4fdf01b23845783edb9fcb836024820152604490fd5b919550915062001bb79250803d10620008c357620008a58183620031ed565b505094505091509091935f8062001951565b5f80516020620056258339815191521462001bf3575b505050509662001a37939495969762001a27565b6307ddfc9d60e51b8152929350909189816004818a5afa80918b8094819462001eaa575b50505062001c2a578a6200092d62003549565b9091339116036200168957600981101562001e96578062001d4d57505f80516020620056858339815191529062001c618162003351565b1562001d11575062001c756001916200349e565b833b1562001a845760405163031a78e760e11b81529062001c9b906004830190620030eb565b85602482015284604482015286808260648183895af1918262001cf9575b505062001ccb5786620019dd62003549565b7f5fb1bfab8c976da190bda996b015c768e51d51c082a11cd3760ccb4bbfbc856562001a375f808062001bdf565b62001d049062003167565b62001a8457865f62001cb9565b62001d1c906200330e565b1562001d2f5762001c756003916200349e565b604485886040519163c2ed710160e01b835260048301526024820152fd5b6002810362001dd7575062001d715f8051602062005705833981519152916200330e565b1562001d845762001c756003916200349e565b6040516315beae7360e31b8152600481018690525f80516020620056c583398151915260248201527fe430cc1a51456bc8b3415ae23c1a65609649e65b8b38efbcc0d6174299f061fc6044820152606490fd5b6004810362001e61575062001dfb5f80516020620056c583398151915291620032f6565b1562001e0e5762001c756005916200349e565b6040516315beae7360e31b8152600481018690525f805160206200572583398151915260248201527fe430cc1a51456bc8b3415ae23c1a65609649e65b8b38efbcc0d6174299f061fc6044820152606490fd5b8460ff606492604051926316b2f69d60e21b845260048401521660248201525f80516020620056658339815191526044820152fd5b634e487b7160e01b88526021600452602488fd5b60609293955062001ed094503d8092853e62001ec78285620031ed565b010190620038c7565b50505097965094505050505091905f8b8162001c17565b60405163a8449b6160e01b8152600481018690525f80516020620056658339815191526024820152604490fd5b6040516315beae7360e31b8152600481018790525f80516020620056a583398151915260248201527f1da3000d226bde55fb3a7c07d7dc2aab004ace414aadc42e21605084cc9327716044820152606490fd5b604051633a2dbb6f60e21b81527f5e784e45feb63c375016d4ce5c52a57b0a48b8a170bc2e31463be0d03d1c4db66004820152602490fd5b604051633a2dbb6f60e21b81527fb1ecd7d16ddb5dea4d7e529640299f7d2be2f8ca295672c754a04286db17c2386004820152602490fd5b5034620001ed576040366003190112620001ed5762001ff5620030a2565b6001600160a01b03908116825260046020526040822080546024359390841015620001ed5750610120926200202a916200310d565b50908154918160018201541691600282015416600382015460048301546005840154916006850154936008600787015496015496604051988952602089015260408801526060870152608086015260a085015260c084015260e0830152610100820152f35b5034620001ed5780600319360112620001ed5760206040515f80516020620057458339815191528152f35b5034620001ed5780600319360112620001ed5760206040515f80516020620056458339815191528152f35b5034620001ed5780600319360112620001ed5760206040515f80516020620056858339815191528152f35b5034620001ed576040366003190112620001ed5760206200213d62002134620030bd565b600435620033d7565b6040519015158152f35b5034620001ed5780600319360112620001ed57546040516001600160a01b039091168152602090f35b5034620001ed5760a0366003190112620001ed576200218e620030d4565b906200219a3362003394565b15620025f7576001600160a01b03821615620025bf5760243580156200113057620021c5836200326b565b156200256457604051610951808201916001600160401b039181841083851117620025505762004cd4823930835260043560208401819052604084018590523360608501526001600160a01b03871660808501529281900360a0019085f093841562002544576001600160a01b038516156200251e5760405f80516020620056458339815191529160018060a01b0387168152600660205220556040519260208401928352604084015260018060a01b0385166060840152606083528260808101109060808401111762000e9257608082016040528151902060018060a01b0383165f52600560205260405f2054600460205260405f20908154928360a08601526001600160601b0319803360601b1660c08701528760601b1660d48601527fb5e58e2066c191bc0a2cc0ee566de21514395220ba7529cd369470e9016a692860e886015260643594610108908682820152608435918261012883015242610148830152836101688301528461018883015260808201526200234a60808201620031b4565b60a060808201519101209560405198620023648a6200317b565b868a523360208b01526001600160a01b031660408a01527fb5e58e2066c191bc0a2cc0ee566de21514395220ba7529cd369470e9016a692860608a0152608089015260a08801524260c088015260e0870152610100860152600160401b82101562000e925781620023db916001820181556200310d565b62000e7f576008610100866020975184556001840160018060a01b038983015116906001600160601b0360a01b9182825416179055600285019060018060a01b0360408401511690825416179055606081015160038501556080810151600485015560a0810151600585015560c0810151600685015560e08101516007850155015191015560018060a01b0383165f52600584528160405f2055604051917fb5e58e2066c191bc0a2cc0ee566de21514395220ba7529cd369470e9016a692883524285840152604083015233915f80516020620056e5833981519152606060018060a01b03861692a460405142815233906001600160a01b038316905f8051602062005645833981519152907f0b77650363b744933f1f4ffbb8f5524878e14fbaea1a1ac6f37e1498908db353908690a46040516001600160a01b039091168152f35b6040516341cb2f2360e11b81525f80516020620056458339815191526004820152602490fd5b604051903d90823e3d90fd5b634e487b7160e01b86526041600452602486fd5b6040516315beae7360e31b81526001600160a01b03841660048201525f805160206200568583398151915260248201527f4b3220c5d0318ae8272ca7c0385952c2e61f81654ebb7c78ac6876eb9803d7a16044820152606490fd5b604051633a2dbb6f60e21b81527f5ec37373a1aae2bc7720939b3b0ce73d30a9637033563ec7deddbff6c856d12d6004820152602490fd5b60405163667c501d60e01b81523360048201525f80516020620057458339815191526024820152604490fd5b5034620001ed5780600319360112620001ed5760206040515f80516020620056258339815191528152f35b5034620001ed5780600319360112620001ed5760206040515f80516020620057658339815191528152f35b5034620001ed576020366003190112620001ed576020906040906001600160a01b03620026a5620030a2565b168152600583522054604051908152f35b5034620001ed576020366003190112620001ed57620026d4620030a2565b818060405160208101906307ddfc9d60e51b825260048152620026f781620031d1565b5190845afa906200270762003549565b91156200286257508051810190610160818303126200285e576020810151926040820151926060830151906001600160401b0382116200285e57906020806200275593019185010162003857565b916200276460808201620034d3565b60a082015160c083015160e084015190600982101562001a885762002790610100869a979a01620034d3565b92620027a06101208701620034d3565b99610160620027b36101408901620034d3565b970151976040519a6101608c01918c5260208c015261016060408c0152895180915260206101808c019a01915b8181106200283e575050506001600160a01b0394851660608a0152608089015260a08801529596879692939284928391620028209060c08b0190620030eb565b1660e088015216610100860152166101208401526101408301520390f35b82516001600160a01b03168b5260209a8b019a90920191600101620027e0565b8280fd5b62000437604051928392631b9577f160e31b8452600484016200358b565b5034620001ed5780600319360112620001ed5760206040515f80516020620056a58339815191528152f35b5034620001ed576040366003190112620001ed57600435620028cc620030bd565b5f80516020620057258339815191528214620029aa576001600160a01b0390811690811562000263575f8051602062005765833981519152831490816200299b575b50620002755762002924336200038a846200395c565b156200040357818352600160205260408320815f5260205260ff60405f205416156200294e578280f35b818352600160205260408320815f5260205260405f20600160ff1982541617905533917f2f8788117e7eff1d82e926ec794901d17c78024a50270940304540a733656f0d8480a45f808280f35b90508354163314155f6200290e565b60405163a014c60d60e01b8152600490fd5b5034620001ed576080366003190112620001ed57620029da620030a2565b9060248035906001600160a01b03841690606435604435831562002f4c5783865260066020526040862054801562002f0e5762002a17336200320f565b9087905f8051602062005645833981519152810362002da85750501562002cfa575b833b1562001a8857604051633ff08b0560e01b8152600481018690528680828681838a5af1918262002ce2575b505062002a97578662002a7862003549565b604051631b9577f160e31b81529182916200043791600484016200360a565b909192939495507f196aeeb4bf6d1157102d3b58f5c5c6e849682aa43ade23903ea70562e858407f925b6040516020810190604082526009606082015268111154d51493d6515160ba1b60808201528760408201526080815262002afb8162003198565b519020855f52600560205260405f205490600460205260405f209182549560405160208101908882526001600160601b03193360601b1660408201525f60548201528960688201528760888201528260a88201524260c88201528460e88201526101088481830152815262002b7081620031b4565b519020956040519462002b83866200317b565b8886526020860133815260408701905f825260608801928c84526080890194855260a0890195865260c089019642885260e08a019889526101008a0152600160401b8c101562002ccf578b62002bdf916001820181556200310d565b99909962002cbe57509187959391610100979593600899518b5560018b019060018060a01b03905116906001600160601b0360a01b918282541617905560028b019160018060a01b03905116908254161790555160038901555160048801555160058701555160068601555160078501550151910155835f5260056020528060405f20556040519283524260208401526040830152825f80516020620056e583398151915260603394a46040519182524260208301527f809b6d70a1b73a13924cc2c372e262337af228512a4158b7bc0c76329d6be53560403393a380f35b634e487b7160e01b5f525f6004525ffd5b89634e487b7160e01b5f5260416004525ffd5b62002ced9062003167565b62001a8457865f62002a66565b6040516307ddfc9d60e51b81526101008082600481895afa918291899362002d7c575b505062002d2f5787620006cc62003549565b6001600160a01b0316331462002a395760405163772d72df60e11b81523360048201527f42395e1291afc1b966d1b1eefbff10c1c348db2994068d134b2ccc9662ba4e2681850152604490fd5b62002d97929350803d10620008c357620008a58183620031ed565b5050505050915050905f8062002d1d565b5f80516020620056258339815191529099929196979899959394951462002dd2575b505062002ac1565b909796959450929190921562002e67575b833b1562001a8857604051633ff08b0560e01b8152600481018690528681858183895af1908162002e51575b5062002e20578662002a7862003549565b909192939495507fe6b6c948be36d77a40d4812ce8dbd1d7fe96ffbbb7d6cf50c30fe3e7e31b986c925f8062002dca565b62002e5f9097919762003167565b955f62002e0f565b6040516307ddfc9d60e51b81528681600481885afa87918162002ee3575b5062002e9657876200092d62003549565b6001600160a01b0316331462002de35760405163772d72df60e11b81523360048201527fe5b3251b45eb4f44420fb91d8cccb2c4f2737a2623341e00e2f4cbed4ab5974381850152604490fd5b62002efb9192503d808a833e62000a858183620031ed565b5050509650505050505050905f62002e85565b60405163a8449b6160e01b8152600481018690527f47021dfd1ce59972f59ea65ed9278a8986e653f7b65422c94eb78c23a9b24b9681860152604490fd5b604051633a2dbb6f60e21b81527f286239ce7a4e2666d0d792f9b54bb56dd5b268c56670d85660923cc3fdd0668860048201528390fd5b5034620001ed576020366003190112620001ed576020620001e56004356200395c565b5034620001ed5780600319360112620001ed5760206040515f80516020620057258339815191528152f35b9050346200182d5760403660031901126200182d57600435602435915f8051602062005765833981519152821462003093575082546001600160a01b03163303620002755780835260026020526040832054908282148015906200307a575b156200306b5780845260026020528260408520557fbd79b86ffe0ab8e8776151514217cd7cacd52c909f66475c3af44e129f0b00ff8480a480f35b6200041262000437916200395c565b505f805160206200572583398151915283141562003030565b638dab38d560e01b8152600490fd5b600435906001600160a01b0382168203620030b957565b5f80fd5b602435906001600160a01b0382168203620030b957565b604435906001600160a01b0382168203620030b957565b906009821015620030f95752565b634e487b7160e01b5f52602160045260245ffd5b805482101562003127575f52600960205f20910201905f90565b634e487b7160e01b5f52603260045260245ffd5b6060906003190112620030b9576004356001600160a01b0381168103620030b957906024359060443590565b6001600160401b03811162000e9257604052565b61012081019081106001600160401b0382111762000e9257604052565b60a081019081106001600160401b0382111762000e9257604052565b61014081019081106001600160401b0382111762000e9257604052565b604081019081106001600160401b0382111762000e9257604052565b90601f801991011681019081106001600160401b0382111762000e9257604052565b6001600160a01b0390811690811562003265575f541681146200325f575f9081527f50efbde2d46c37e9785f1791697f77e94bb7b701e19f1930a668820722d37694602052604090205460ff1690565b50600190565b50505f90565b6001600160a01b03168015620032ae575f9081527f9bf69c02ecb57bec2332bd5ee59fccb5621131eaae23124e1464351ca514c162602052604090205460ff1690565b505f90565b6001600160a01b03168015620032ae575f9081527f10c65dc6ccb122c404dfd5b8ca8da1f1d1bf8aeef955ec62812c44d3068970ae602052604090205460ff1690565b6001600160a01b0316156200330a57600190565b5f90565b6001600160a01b03168015620032ae575f9081527f210932760c18fe8bc12f9d1bd245c25c0f21fa2541f289eb5b159588ce1f7b3f602052604090205460ff1690565b6001600160a01b03168015620032ae575f9081527fec20dcce8b3f50372a528e9934bdba53b7d3d1389d9788025b47a55346432dea602052604090205460ff1690565b6001600160a01b03168015620032ae575f9081527f2eb872027696328c5aed9fb69fabf3409a88d51ea413e698947699cbf4e5c34f602052604090205460ff1690565b6001600160a01b0391821691821562003458575f8051602062005725833981519152821462003450575f80516020620057658339815191528214908162003442575b506200343b575f52600160205260405f20905f5260205260ff60405f20541690565b5050600190565b90505f541682145f62003419565b505050600190565b5050505f90565b6200346a336200326b565b156200347257565b60405163667c501d60e01b81523360048201525f80516020620056858339815191526024820152604490fd5b620034aa3382620033d7565b15620034b35750565b60405163667c501d60e01b81523360048201526024810191909152604490fd5b51906001600160a01b0382168203620030b957565b919082610100910312620030b9578151916020810151916200350d60408301620034d3565b916200351c60608201620034d3565b9160808201519160a08101516004811015620030b9579160e06200354360c08401620034d3565b92015190565b3d1562003586573d906001600160401b03821162000e9257604051916200357b601f8201601f191660200184620031ed565b82523d5f602084013e565b606090565b9092919260018060a01b031681526020927f40ca0916f852204a55a0adf9d359c24f89bc3ceef09a35ec105f5bee4b0b58a384830152606060408301528051908160608401525f5b828110620035f557505060809293505f838284010152601f8019910116010190565b818101860151848201608001528501620035d3565b9092919260018060a01b031681526020927f47021dfd1ce59972f59ea65ed9278a8986e653f7b65422c94eb78c23a9b24b9684830152606060408301528051908160608401525f5b8281106200367457505060809293505f838284010152601f8019910116010190565b81810186015184820160800152850162003652565b9092919260018060a01b031681526020927f9dc5eea1c6277f2c5c8ea360893c67db7460ac578489da6c81cf7d69283e1e3684830152606060408301528051908160608401525f5b828110620036f357505060809293505f838284010152601f8019910116010190565b818101860151848201608001528501620036d1565b9092919260018060a01b031681526020925f805160206200566583398151915284830152606060408301528051908160608401525f5b8281106200376057505060809293505f838284010152601f8019910116010190565b8181018601518482016080015285016200373e565b9092919260018060a01b031681526020927f56ba99c71dd831c020a4dedbc22cd351ee9bc81378d14ca31c0d5692594d1b1c84830152606060408301528051908160608401525f5b828110620037df57505060809293505f838284010152601f8019910116010190565b818101860151848201608001528501620037bd565b9190808252602080920192915f805b8382106200381357505050505090565b9091929394853560018060a01b0381168091036200285e57815283019483019392916001019062003803565b6001600160401b03811162000e925760051b60200190565b81601f82011215620030b95780519162003871836200383f565b92620038816040519485620031ed565b808452602092838086019260051b820101928311620030b9578301905b828210620038ad575050505090565b838091620038bb84620034d3565b8152019101906200389e565b9161016083830312620030b9578251926020810151926040820151906001600160401b038211620030b957620038ff91830162003857565b916200390e60608301620034d3565b9160808101519160a08201519160c08101516009811015620030b957916200393960e08301620034d3565b91620039496101008201620034d3565b91610140620035436101208401620034d3565b5f80516020620057658339815191529081811462003992575f52600260205260405f205480155f146200398d575090565b905090565b5090565b9593929360018060a01b0387165f52600560205260405f2054600460205260405f209182549760405160208101908a82526001600160601b0319808860601b1660408301528860601b1660548201528960688201528860888201528260a88201524260c88201528360e88201526101088581830152815262003a1881620031b4565b519020966040519662003a2b886200317b565b8a88526001600160a01b0387811660208a015216604088015260608701899052608087015260a08601524260c086015260e0850152610100840152600160401b86101562000e92578562003a85916001820181556200310d565b93909362000e7f575f80516020620056e5833981519152936008610100856060965184556001840160018060a01b03602083015116906001600160601b0360a01b9182825416179055600285019060018060a01b03604084015116908254161790558681015160038501556080810151600485015560a0810151600585015560c0810151600685015560e08101516007850155015191015560018060a01b0387165f5260056020528060405f2055604051948552426020860152604085015260018060a01b03169460018060a01b031692a4565b9062003b7f602060405183819483830196873781015f83820152038084520182620031ed565b5190205f80516020620057658339815191528114801562003c7b575b801562003c63575b801562003c4b575b801562003c33575b801562003c1b575b801562003c03575b62003c0057604051634aeee32b60e01b81527f1c05b3cd89fc8d37eac7338f97dd6d678466f8b46cffd70e3cfe1b9d7413b35a6004820152602490fd5b90565b505f8051602062005725833981519152811462003bc3565b505f80516020620056c5833981519152811462003bbb565b505f8051602062005705833981519152811462003bb3565b505f8051602062005685833981519152811462003bab565b505f80516020620056a5833981519152811462003ba3565b505f8051602062005745833981519152811462003b9b56fe6040610160815234620002c25762001040803803806200001f81620002c6565b928339810160c082820312620002c2576200003a82620002ec565b926020938484015192828501519060608601519060018060401b0391828111620002c25787019281601f85011215620002c25783519183831162000283578260051b948a6200008b818801620002c6565b80958152018b8197830101928311620002c2578b809201905b838210620002a8575050505060a0620000c060808a01620002ec565b980151966001600160a01b0395808716156200029757868a161562000297573060805260a05260c05260e05251908111620002835768010000000000000000811162000283575f9182548284558083106200025b575b50828052878320835b8381106200024657505050507fc13a1166d81cd3b0b352a367aebab95f3a6f6bc695fdab8e9a9d335239c3861b610100968688526101209642885261014096875260015490610100600160a81b039060081b169060018060a81b031916179384600155426004557f40a180796b90921dd8508eb434c78206ca5c737a0d584582edf399bc9711d9e98680518681524285820152a185519442865260081c1693a35191610d3e9384620003028539608051846107f8015260a051848181610349015281816104860152818161058e015281816108460152610ad8015260c05184818161018a015261053a015260e0518481816101af01526109f30152518381816101f101526104f301525182818161021801526102eb01525181818161023e01526107c00152f35b8251861682820155918901916001016200011f565b8380528289852091820191015b81811062000277575062000116565b84815560010162000268565b634e487b7160e01b5f52604160045260245ffd5b87516332cdae1b60e01b8152600490fd5b828091620002b684620002ec565b815201910190620000a4565b5f80fd5b6040519190601f01601f191682016001600160401b038111838210176200028357604052565b51906001600160a01b0382168203620002c25756fe608060409080825260049081361015610016575f80fd5b5f90813560e01c9081630634f1ce14610a955750806306c81cc414610a6c5780630c16971914610a1657806317fc45e2146109db578063200d2ed2146109b25780633ff08b05146108275780634972134a146107e3578063516dde43146107a85780635b37dc721461055d5780637284e4161461052257806374754282146104de57806375422d45146104b5578063a269cc7a14610471578063b387ef9214610444578063b6bc7a0414610335578063c8f33c9114610312578063d8270dce146102d35763fbbf93a0146100e8575f80fd5b346102d057806003193601126102d057600192835460018060a01b03806002541690806003541692865494805180978054988983526020808094018d819c8580527f290decd9548b62a8d60345a988386fc84ba6bc95484008f6362f93160ef3e56391865b8281106102b95750505050829003601f01601f191682019b905067ffffffffffffffff8c11828d10176102a657508a8493929452610160808c01937f00000000000000000000000000000000000000000000000000000000000000008d528c847f00000000000000000000000000000000000000000000000000000000000000009101528c0152518092526101808a0198925b8281106102915750505050869750817f00000000000000000000000000000000000000000000000000000000000000001660608801527f000000000000000000000000000000000000000000000000000000000000000060808801527f000000000000000000000000000000000000000000000000000000000000000060a088015261027260c0880160ff8316610cae565b60081c1660e08601526101008501526101208401526101408301520390f35b835186168a5298810198928101928b016101e0565b634e487b7160e01b835260419052602482fd5b83548c16855288959094019392810192810161014d565b80fd5b50823461030e578160031936011261030e57602090517f00000000000000000000000000000000000000000000000000000000000000008152f35b5080fd5b5091903461033157826003193601126103315760209250549051908152f35b8280fd5b50823461030e578160031936011261030e577f00000000000000000000000000000000000000000000000000000000000000006001600160a01b038116330361041757506001549260ff8416600981101561040457600681036103e9575060075f80516020610ce9833981519152939460ff1916176001554290557f5cff112f1cb588779b4e6aae6baf0d738747fcf132f0ff202adcec605f9cabdf60208251428152a1805160078152426020820152a180f35b604492519163c05a87cf60e01b835282015260076024820152fd5b634e487b7160e01b845260218252602484fd5b8151631fa9027960e01b8152338186019081526001600160a01b0390921660208301529081906040010390fd5b50823461030e578160031936011261030e57600154905160089190911c6001600160a01b03168152602090f35b50823461030e578160031936011261030e57517f00000000000000000000000000000000000000000000000000000000000000006001600160a01b03168152602090f35b50823461030e578160031936011261030e5760025490516001600160a01b039091168152602090f35b50823461030e578160031936011261030e57517f00000000000000000000000000000000000000000000000000000000000000006001600160a01b03168152602090f35b50823461030e578160031936011261030e57602090517f00000000000000000000000000000000000000000000000000000000000000008152f35b50919034610331578160031936011261033157803560098110156107a457610583610c94565b916001600160a01b037f0000000000000000000000000000000000000000000000000000000000000000818116330361077757506001549260ff8416600981101580610758576001821490811561076b575b8115610747575b89916002851490811561073a575b838215610715575b501590811561070c575b506106b157895f80516020610ce98339815191528a60ff6106a78c8c8c7fc13a1166d81cd3b0b352a367aebab95f3a6f6bc695fdab8e9a9d335239c3861b60208e6106468f610ccf565b60018054610100600160a81b03198116600898891b610100600160a81b03161791829055600280546001600160a01b031990811690915560038054909116905542958690558a519586529690811c821695901c1692a3835192839116610cae565b426020820152a180f35b888a879386936106f9576106e6575051635a9516b160e01b815260ff9384169281019283529216602082015281906040010390fd5b634e487b7160e01b815260218452602490fd5b634e487b7160e01b825260218552602482fd5b9050155f6105fc565b909150610727576006851490836105f2565b634e487b7160e01b8b526021875260248bfd5b8b935085881491506105ea565b8091506107585760058214906105dc565b634e487b7160e01b895260218552602489fd5b505060038114886105d5565b8551631fa9027960e01b8152338185019081526001600160a01b0390921660208301529081906040010390fd5b8380fd5b50823461030e578160031936011261030e57602090517f00000000000000000000000000000000000000000000000000000000000000008152f35b50823461030e578160031936011261030e57517f00000000000000000000000000000000000000000000000000000000000000006001600160a01b03168152602090f35b50919034610331576020366003190112610331576001600160a01b03907f0000000000000000000000000000000000000000000000000000000000000000828116330361098557506001549160ff831660098110156109725760088114908115610967575b5061095857917f3e6f997c58cb1412e97320e1a9863980eb67e8223fab083f2e77b8afb8c8c46084869360085f80516020610ce9833981519152979685821c16946affffffffffffffffffffff60a81b16176001556bffffffffffffffffffffffff60a01b806002541660025560035416600355428155815190358152426020820152a180610928575b5050805160088152426020820152a180f35b7fc13a1166d81cd3b0b352a367aebab95f3a6f6bc695fdab8e9a9d335239c3861b60208451428152a3825f610916565b508251635e1f756960e01b8152fd5b60079150145f61088c565b634e487b7160e01b865260218352602486fd5b8351631fa9027960e01b8152339281019283526001600160a01b0390911660208301529081906040010390fd5b50823461030e578160031936011261030e576020906109d960ff6001541691518092610cae565bf35b50823461030e578160031936011261030e57602090517f00000000000000000000000000000000000000000000000000000000000000008152f35b509190346103315760203660031901126103315735825481101561033157826020935260018060a01b03907f290decd9548b62a8d60345a988386fc84ba6bc95484008f6362f93160ef3e5630154169051908152f35b50823461030e578160031936011261030e5760035490516001600160a01b039091168152602090f35b849150346103315760603660031901126103315783359360098510156107a457610abd610c94565b6044356001600160a01b0381811694909291859003610c90577f00000000000000000000000000000000000000000000000000000000000000008381163303610c6657505060ff60015416600981101580610c47578115908115610c5a575b8115610c37575b889160018b14908115610c29575b838215610c04575b5015908115610bfb575b50610bc657505050610b635f80516020610ce98339815191529697610ccf565b1690826bffffffffffffffffffffffff60a01b8381600254161760025560035416176003554290557fbe373ec085c6b0c7d8170b85a932cee817c77c259c2fe969f9867170ef1c403160208451428152a360ff600154166106a782518092610cae565b878987938c936106f9576106e6575051635a9516b160e01b815260ff9384169281019283529216602082015281906040010390fd5b9050158b610b43565b909150610c165760058b149083610b39565b634e487b7160e01b8a526021875260248afd5b8a935060038c149150610b31565b809150610c475784821490610b23565b634e487b7160e01b885260218552602488fd5b50506002811487610b1c565b631fa9027960e01b8252338583019081526001600160a01b03909116602082015281906040010390fd5b8680fd5b602435906001600160a01b0382168203610caa57565b5f80fd5b906009821015610cbb5752565b634e487b7160e01b5f52602160045260245ffd5b6009811015610cbb5760ff80196001541691161760015556fe40a180796b90921dd8508eb434c78206ca5c737a0d584582edf399bc9711d9e9a2646970667358221220c7312548de755ae3c04ad4a544f5958951731472daf0e4b4c7afceb6374d2c8f64736f6c634300081400336101603461018757601f61095138819003918201601f1916830191906001600160401b0383118484101761018b578160a092859260409586528339810103126101875761004b8261019f565b906020830151818401519061006e60806100676060880161019f565b960161019f565b936001600160a01b0380821615610176578087161561017657851615610165573060805260a05260c05260e0526101009283526101209182526101409042825260ff195f54165f55426001557f40a180796b90921dd8508eb434c78206ca5c737a0d584582edf399bc9711d9e98180515f8152426020820152a1519161079d93846101b4853960805184610536015260a0518481816101f001528181610383015281816103f2015261057a015260c05184818160d501526104fe015260e05184818160f8015261072301525183818161012601526106b60152518281816101500152610672015251818181610178015261032c0152f35b83516332cdae1b60e01b8152600490fd5b84516332cdae1b60e01b8152600490fd5b5f80fd5b634e487b7160e01b5f52604160045260245ffd5b51906001600160a01b03821682036101875756fe6080604081815260049182361015610015575f80fd5b5f92833560e01c91826317fc45e21461070c57508163200d2ed2146106e557816336da4468146106a15781633cec47861461065d5781633ff08b05146105655781634972134a146105215781637284e416146104e657816372b30cc0146103de57816375422d45146103b2578163a269cc7a1461036e578163c8f33c911461034f578163d8270dce14610314578163f356e93f146101c6575063fbbf93a0146100bc575f80fd5b346101c257816003193601126101c257905460015482517f000000000000000000000000000000000000000000000000000000000000000081527f000000000000000000000000000000000000000000000000000000000000000060208201526001600160a01b037f00000000000000000000000000000000000000000000000000000000000000008116948201949094527f0000000000000000000000000000000000000000000000000000000000000000841660608201527f000000000000000000000000000000000000000000000000000000000000000060808201526101009390926101b260a0850160ff8316610746565b60081c1660c083015260e0820152f35b5080fd5b8383346101c25760203660031901126101c2576001600160a01b03833581811691828203610310577f000000000000000000000000000000000000000000000000000000000000000090811633036102e3575083549460ff8616818110156102d057806102b45750507f40a180796b90921dd8508eb434c78206ca5c737a0d584582edf399bc9711d9e993946001916101008360a81b039060081b16906affffffffffffffffffffff60a81b1617178455426001557f49072639b22410ad80b7e5968b8b4fc20b3aefc410e681b79a1db7cb0b7ce33660208351428152a2805160018152426020820152a180f35b845163c05a87cf60e01b81529182015260248101859052604490fd5b634e487b7160e01b865260218252602486fd5b8351631fa9027960e01b8152338188019081526001600160a01b0390921660208301529081906040010390fd5b8480fd5b5050346101c257816003193601126101c257602090517f00000000000000000000000000000000000000000000000000000000000000008152f35b5050346101c257816003193601126101c2576020906001549051908152f35b5050346101c257816003193601126101c257517f00000000000000000000000000000000000000000000000000000000000000006001600160a01b03168152602090f35b5050346101c257816003193601126101c2579054905160089190911c6001600160a01b03168152602090f35b9050346104e257826003193601126104e2577f00000000000000000000000000000000000000000000000000000000000000006001600160a01b03811633036104b6575082549060ff8216818110156104a3576001810361048657847f40a180796b90921dd8508eb434c78206ca5c737a0d584582edf399bc9711d9e9856002866affffffffffffffffffffff60a81b1617835542600155805160028152426020820152a180f35b835163c05a87cf60e01b8152918201526001602482015260449150fd5b634e487b7160e01b855260218252602485fd5b9151631fa9027960e01b8152339181019182526001600160a01b03909216602082015281906040010390fd5b8280fd5b5050346101c257816003193601126101c257602090517f00000000000000000000000000000000000000000000000000000000000000008152f35b5050346101c257816003193601126101c257517f00000000000000000000000000000000000000000000000000000000000000006001600160a01b03168152602090f35b9050346104e25760203660031901126104e2577f00000000000000000000000000000000000000000000000000000000000000006001600160a01b03811633036104b65750825460ff81168281101561064a5760031461063b57827f40a180796b90921dd8508eb434c78206ca5c737a0d584582edf399bc9711d9e9939260037f3e6f997c58cb1412e97320e1a9863980eb67e8223fab083f2e77b8afb8c8c460936affffffffffffffffffffff60a81b1617865542600155815190358152426020820152a1805160038152426020820152a180f35b5090516319e0cd3d60e21b8152fd5b634e487b7160e01b855260218352602485fd5b5050346101c257816003193601126101c257517f00000000000000000000000000000000000000000000000000000000000000006001600160a01b03168152602090f35b5050346101c257816003193601126101c257517f00000000000000000000000000000000000000000000000000000000000000006001600160a01b03168152602090f35b5050346101c257816003193601126101c25761070a60ff602093541691518092610746565bf35b8490346101c257816003193601126101c2576020907f00000000000000000000000000000000000000000000000000000000000000008152f35b9060048210156107535752565b634e487b7160e01b5f52602160045260245ffdfea2646970667358221220bc19ebce411f8d87bc4c29bceb91ccdeee2cd5ecbc1339ddd9d11d51d15b1b3b64736f6c63430008140033e62d301a4406815186889d9f260d24e0b044e5d2979b34b05f7906464535b6daf25fc196a09c498d6218d861ed9e33b8380f9200ea9174e7bbdc1b583eb31d9e822fba778ff1a1b597adf499ec595adc09b97e69eb98cb094c35583e3ae73f99eefb95e842a3287179d933b4460be539a1d5af11aa8b325bb45c5c8dc92de4edddaa901e2fe3bda354fe0ede2785152d5c109282a613fe024a056a3e66c41bb3fbd454f36a7e1a388bd6fc3ab10d434aa4578f811acbbcf33afb1c697486313ceeab7a81dc34ae18dd88b1561591cfa6c62e4301c1070bbcb2c0d36cd109575be34aaecbfe1f40867dcba8678fbed9f4ffa5782221fa3bb500b71b2a80430318288a15c4a15d470e4cd9cad2f113b91206b520c26dbd3dd74627f0c057baa19cd1ae8bbdabd60d63e418b84f5ad6f9cba90092c9816d7724d85f0d4e4bea2c60a49807205ce4d355092ef5a8a18f56e8913cf4a201fbe287825b095693c21775a26469706673582212203036fce497eddaaa0b5126fd2f08aff0563b94aeaa0604e18471ad55a642225864736f6c63430008140033",
  "immutableReferences": {},
  "source": "// logic/SupplyChainLogic.sol\r\n// SPDX-License-Identifier: MIT\r\npragma solidity ^0.8.20;\r\n\r\nimport {Errors} from \"../libraries/Errors.sol\";\r\nimport {AccessControlWithOwner} from \"../access/AccessControlWithOwner.sol\"; // Base contract for state/logic\r\nimport {RawMaterial} from \"../batches/RawMaterial.sol\"; // Batch types\r\nimport {Medicine} from \"../batches/Medicine.sol\";\r\n\r\n/**\r\n * @title SupplyChainLogic\r\n * @dev Implements core supply chain actions and state management. Inherits AccessControlWithOwner.\r\n *      Designed to be called via delegatecall from SupplyChainProxy.\r\n *      Initialization is handled by the inherited _initializeOwner function.\r\n */\r\ncontract SupplyChainLogic is AccessControlWithOwner {\r\n\r\n    // --- State Variables ---\r\n    struct TxnLog {\r\n        uint index; // Index within the batch's log array\r\n        address actor; // Address performing the action\r\n        address involvedParty; // e.g., Transporter, Receiver, Manufacturer\r\n        bytes32 eventCode; // Hash identifying the type of event (e.g., LOG_RM_CREATED)\r\n        int256 latitude; // Location data\r\n        int256 longitude; // Location data\r\n        uint timestamp; // Block timestamp of the log entry\r\n        bytes32 dataHash; // Hash of relevant event data (e.g., quantity, description hash)\r\n        bytes32 previousLogHash; // Hash of the previous log entry for integrity\r\n    }\r\n\r\n    // Mapping: Batch Contract Address => Array of Transaction Logs\r\n    mapping(address => TxnLog[]) public batchLogs;\r\n    // Mapping: Batch Contract Address => Hash of the most recent log entry\r\n    mapping(address => bytes32) public lastLogHashForBatch;\r\n    // Mapping: Batch Contract Address => Type identifier (TYPE_RAW_MATERIAL or TYPE_MEDICINE)\r\n    mapping(address => bytes32) public batchType;\r\n\r\n    // --- Constants ---\r\n    // Using bytes32 constants for context/reasons/types/actions/logs for gas efficiency and clarity\r\n    bytes32 private constant CTX_INTENDED_MANUFACTURER = keccak256(\"intendedManufacturer\");\r\n    bytes32 private constant CTX_TRANSPORTER = keccak256(\"transporter\");\r\n    bytes32 private constant CTX_RECEIVER = keccak256(\"receiver\");\r\n    bytes32 private constant CTX_BATCH_ADDRESS = keccak256(\"batchAddress\");\r\n    bytes32 private constant CTX_RM_BATCH_ID_ARRAY = keccak256(\"rawMaterialBatchIdInArray\");\r\n\r\n    bytes32 private constant ARG_QUANTITY_POSITIVE = keccak256(\"QuantityMustBePositive\");\r\n    bytes32 private constant ARG_EXPIRY_FUTURE = keccak256(\"ExpiryDateMustBeInFuture\");\r\n    bytes32 private constant ARG_RM_ARRAY_EMPTY = keccak256(\"RequiresAtLeastOneRawMaterial\");\r\n    bytes32 private constant ARG_UNKNOWN_ROLE_NAME = keccak256(\"UnknownRoleNameProvided\");\r\n\r\n    bytes32 private constant REASON_MANUFACTURER_ROLE_MISSING = keccak256(\"IntendedManufacturerLacksRole\");\r\n    bytes32 private constant REASON_TRANSPORTER_ROLE_MISSING = keccak256(\"TransporterLacksRole\");\r\n    bytes32 private constant REASON_RECEIVER_ROLE_INVALID = keccak256(\"ReceiverRoleInvalidForStage\");\r\n    bytes32 private constant REASON_NOT_SUPPLIER = keccak256(\"CallerIsNotSupplier\");\r\n    bytes32 private constant REASON_NOT_OWNER = keccak256(\"CallerIsNotCurrentOwner\");\r\n    bytes32 private constant REASON_NOT_ADMIN_OR_SUPPLIER = keccak256(\"RequiresAdminOrSupplier\");\r\n    bytes32 private constant REASON_NOT_ADMIN_OR_OWNER = keccak256(\"RequiresAdminOrOwner\");\r\n    bytes32 private constant REASON_RM_NOT_RECEIVED = keccak256(\"RawMaterialNotReceived\");\r\n    bytes32 private constant REASON_RM_WRONG_MANUFACTURER = keccak256(\"RawMaterialWrongManufacturer\");\r\n    // bytes32 private constant REASON_RM_INVALID_CONTRACT = keccak256(\"RawMaterialInvalidContract\"); // Covered by SCExternalCallFailed\r\n    bytes32 private constant REASON_RM_NOT_RM_TYPE = keccak256(\"AddressIsNotRawMaterialBatch\");\r\n\r\n    bytes32 private constant ACTION_INITIATE_TRANSFER = keccak256(\"initiateTransfer\");\r\n    bytes32 private constant ACTION_RECEIVE_PACKAGE = keccak256(\"receivePackage\");\r\n    bytes32 private constant ACTION_FINALIZE_BATCH = keccak256(\"finalizeMedicineBatch\");\r\n    bytes32 private constant ACTION_DESTROY_BATCH = keccak256(\"markBatchDestroyed\");\r\n    bytes32 private constant ACTION_GET_RM_DETAILS = keccak256(\"getRawMaterialDetails\");\r\n    bytes32 private constant ACTION_GET_MED_DETAILS = keccak256(\"getMedicineDetails\");\r\n\r\n    bytes32 public constant TYPE_RAW_MATERIAL = keccak256(\"RAW_MATERIAL\"); // Public for external reference\r\n    bytes32 public constant TYPE_MEDICINE = keccak256(\"MEDICINE\");       // Public for external reference\r\n\r\n    bytes32 private constant LOG_RM_CREATED = keccak256(\"RawMaterial Created\");\r\n    bytes32 private constant LOG_MED_CREATED = keccak256(\"Medicine Created\");\r\n    bytes32 private constant LOG_RM_TRANSFER = keccak256(\"RawMaterial Transfer Initiated\");\r\n    bytes32 private constant LOG_MED_TRANSFER = keccak256(\"Medicine Transfer Initiated\");\r\n    bytes32 private constant LOG_RM_RECEIVED = keccak256(\"RawMaterial Received\");\r\n    bytes32 private constant LOG_MED_RECEIVED = keccak256(\"Medicine Received\");\r\n    bytes32 private constant LOG_MED_FINALIZED = keccak256(\"Medicine Consumed/Sold\");\r\n    bytes32 private constant LOG_RM_DESTROYED = keccak256(\"RawMaterial Destroyed\");\r\n    bytes32 private constant LOG_MED_DESTROYED = keccak256(\"Medicine Destroyed\");\r\n\r\n\r\n    // --- Events (Inherits Access Control Events: OwnershipTransferred, RoleAdminChanged, RoleGranted, RoleRevoked) ---\r\n    event BatchCreated(bytes32 indexed batchType, address indexed batchAddress, address indexed creator, uint timestamp);\r\n    event TransferInitiated(address indexed batchAddress, address indexed initiator, address indexed transporter, address receiver, uint timestamp);\r\n    event PackageReceived(address indexed batchAddress, address indexed receiver, address indexed sender, uint timestamp); // sender is previous holder\r\n    event BatchFinalized(address indexed batchAddress, address indexed finalOwner, uint timestamp); // For medicine consumed/sold\r\n    event BatchDestroyed(address indexed batchAddress, address indexed actor, bytes32 reasonCode, uint timestamp);\r\n    event LogEntryCreated(address indexed batchAddress, uint indexed index, address indexed actor, bytes32 eventCode, uint timestamp, bytes32 currentLogHash);\r\n\r\n    // --- Initialization ---\r\n    /**\r\n     * @dev Public initializer called ONLY ONCE by Proxy constructor via delegatecall.\r\n     *      Delegates *entirely* to the inherited _initializeOwner function.\r\n     * @param deployer The address to become the initial owner and admin.\r\n     */\r\n    function initialize(address deployer) external {\r\n        // This function's SOLE purpose is to be the target of the proxy's\r\n        // initialization delegatecall. It calls the internal function which\r\n        // handles setting owner and default role admins.\r\n        _initializeOwner(deployer);\r\n        // Owner implicitly gets ADMIN_ROLE via _hasRole logic.\r\n    }\r\n\r\n    // --- Batch Creation Functions ---\r\n\r\n    /**\r\n     * @dev Creates a new RawMaterial batch contract. Requires SUPPLIER_ROLE.\r\n     * Validates inputs and intended manufacturer role.\r\n     */\r\n    function createRawMaterial(\r\n        bytes32 _description,\r\n        uint _quantity,\r\n        address _intendedManufacturer,\r\n        int256 _latitude,\r\n        int256 _longitude\r\n    ) external returns (address batchAddress) {\r\n        _checkSenderRole(SUPPLIER_ROLE); // Check msg.sender has SUPPLIER_ROLE\r\n\r\n        // Input validation\r\n        if (_intendedManufacturer == address(0)) revert Errors.SCInvalidAddress(CTX_INTENDED_MANUFACTURER);\r\n        if (_quantity == 0) revert Errors.SCArgumentError(ARG_QUANTITY_POSITIVE);\r\n\r\n        // Role validation for other parties\r\n        if (!_hasRole(MANUFACTURER_ROLE, _intendedManufacturer)) {\r\n             revert Errors.SCRoleCheckFailed(_intendedManufacturer, MANUFACTURER_ROLE, REASON_MANUFACTURER_ROLE_MISSING);\r\n        }\r\n\r\n        // Deployment\r\n        RawMaterial batch = new RawMaterial(address(this), _description, _quantity, msg.sender, _intendedManufacturer);\r\n        batchAddress = address(batch);\r\n        if (batchAddress == address(0)) revert Errors.SCBatchCreationFailed(TYPE_RAW_MATERIAL); // Should not happen if constructor succeeds\r\n\r\n        // State Update & Logging\r\n        batchType[batchAddress] = TYPE_RAW_MATERIAL;\r\n        bytes32 dataHash = keccak256(abi.encode(_description, _quantity, _intendedManufacturer)); // Hash key creation data\r\n        _logTransaction(batchAddress, msg.sender, _intendedManufacturer, LOG_RM_CREATED, _latitude, _longitude, dataHash);\r\n        emit BatchCreated(TYPE_RAW_MATERIAL, batchAddress, msg.sender, block.timestamp);\r\n    }\r\n\r\n    /**\r\n     * @dev Creates a new Medicine batch contract. Requires MANUFACTURER_ROLE.\r\n     * Validates inputs, expiry date, and input raw material batches.\r\n     */\r\n    function createMedicine(\r\n        bytes32 _description,\r\n        uint _quantity,\r\n        address[] calldata _rawMaterialBatchIds,\r\n        uint _expiryDate,\r\n        int256 _latitude,\r\n        int256 _longitude\r\n    ) external returns (address batchAddress) {\r\n        _checkSenderRole(MANUFACTURER_ROLE); // Check msg.sender has MANUFACTURER_ROLE\r\n\r\n        // Input validation\r\n        if (_rawMaterialBatchIds.length == 0) revert Errors.SCArgumentError(ARG_RM_ARRAY_EMPTY);\r\n        if (_quantity == 0) revert Errors.SCArgumentError(ARG_QUANTITY_POSITIVE);\r\n        if (_expiryDate <= block.timestamp) revert Errors.SCArgumentError(ARG_EXPIRY_FUTURE);\r\n\r\n        // Raw Material Input Validation (Loop is necessary)\r\n        for (uint i = 0; i < _rawMaterialBatchIds.length; i++) {\r\n             address rmAddr = _rawMaterialBatchIds[i];\r\n             if (rmAddr == address(0)) revert Errors.SCInvalidAddress(CTX_RM_BATCH_ID_ARRAY);\r\n\r\n             // 1. Check if known batch and correct type in this contract's state\r\n             if(batchType[rmAddr] != TYPE_RAW_MATERIAL) revert Errors.SCRawMaterialValidationFailed(rmAddr, REASON_RM_NOT_RM_TYPE);\r\n\r\n             // 2. Call the RM batch contract to verify its state (status=Received, intendedManufacturer=caller)\r\n             try RawMaterial(rmAddr).getDetails() returns (\r\n                 bytes32, uint, address, address intendedM, uint, RawMaterial.Status status, address, uint\r\n             ) {\r\n                 // Check status returned by the RM batch contract\r\n                 if (status != RawMaterial.Status.Received) revert Errors.SCRawMaterialValidationFailed(rmAddr, REASON_RM_NOT_RECEIVED);\r\n                 // Check if this manufacturer was the intended recipient of the RM batch\r\n                 if (intendedM != msg.sender) revert Errors.SCRawMaterialValidationFailed(rmAddr, REASON_RM_WRONG_MANUFACTURER);\r\n             } catch (bytes memory lowLevelData) {\r\n                 // If the call fails (e.g., invalid contract address, revert in getDetails), catch it\r\n                 revert Errors.SCExternalCallFailed(rmAddr, ACTION_GET_RM_DETAILS, lowLevelData);\r\n             }\r\n             // Note: We don't need to re-check supplier/manufacturer roles here, just the state of the input batch.\r\n        }\r\n\r\n        // Deployment\r\n        // Pass 'this' as the controlling contract address\r\n        Medicine batch = new Medicine(address(this), _description, _quantity, _rawMaterialBatchIds, msg.sender, _expiryDate);\r\n        batchAddress = address(batch);\r\n        if (batchAddress == address(0)) revert Errors.SCBatchCreationFailed(TYPE_MEDICINE); // Should not happen\r\n\r\n        // State Update & Logging\r\n        batchType[batchAddress] = TYPE_MEDICINE;\r\n        // Hash key creation data including the input RM IDs array\r\n        bytes32 dataHash = keccak256(abi.encode(_description, _quantity, _rawMaterialBatchIds, _expiryDate));\r\n        // Involved party is address(0) as it's creation by the manufacturer\r\n        _logTransaction(batchAddress, msg.sender, address(0), LOG_MED_CREATED, _latitude, _longitude, dataHash);\r\n        emit BatchCreated(TYPE_MEDICINE, batchAddress, msg.sender, block.timestamp);\r\n    }\r\n\r\n    // --- Batch Lifecycle Functions ---\r\n\r\n    /**\r\n     * @dev Initiates the transfer of a batch (RawMaterial or Medicine) to a new stage.\r\n     * Requires specific roles depending on the batch type and current state.\r\n     */\r\n    function initiateTransfer(\r\n        address _batchAddress,\r\n        address _transporter,\r\n        address _receiver,\r\n        int256 _latitude,\r\n        int256 _longitude\r\n    ) external {\r\n        address sender = msg.sender; // Cache msg.sender\r\n\r\n        // Argument Validation\r\n        if (_batchAddress == address(0)) revert Errors.SCInvalidAddress(CTX_BATCH_ADDRESS);\r\n        if (_transporter == address(0)) revert Errors.SCInvalidAddress(CTX_TRANSPORTER);\r\n        if (_receiver == address(0)) revert Errors.SCInvalidAddress(CTX_RECEIVER);\r\n\r\n        // Role Validation for involved parties (Transporter must have role)\r\n        if (!_hasRole(TRANSPORTER_ROLE, _transporter)) {\r\n            revert Errors.SCRoleCheckFailed(_transporter, TRANSPORTER_ROLE, REASON_TRANSPORTER_ROLE_MISSING);\r\n        }\r\n\r\n        // Determine batch type\r\n        bytes32 _type = batchType[_batchAddress];\r\n        if (_type == bytes32(0)) revert Errors.SCBatchTypeUnknownOrActionFailed(_batchAddress, ACTION_INITIATE_TRANSFER);\r\n\r\n        bytes32 eventDataHash = keccak256(abi.encode(_transporter, _receiver)); // Hash key transfer details\r\n        bytes32 logCode; // To be set based on type\r\n\r\n        // --- Raw Material Transfer Logic ---\r\n        if (_type == TYPE_RAW_MATERIAL) {\r\n            RawMaterial rm = RawMaterial(_batchAddress); // Interface to batch contract\r\n\r\n            // Authorization: Only the original supplier can initiate transfer\r\n            // We read supplier directly from the batch contract for definitive check\r\n            address supplier;\r\n            address intendedManufacturer;\r\n            RawMaterial.Status currentStatus;\r\n            try rm.getDetails() returns (bytes32, uint, address s, address iM, uint, RawMaterial.Status st, address, uint) {\r\n                supplier = s;\r\n                intendedManufacturer = iM;\r\n                currentStatus = st; // Check status from batch contract state\r\n            } catch (bytes memory lowLevelData) {\r\n                revert Errors.SCExternalCallFailed(_batchAddress, ACTION_GET_RM_DETAILS, lowLevelData);\r\n            }\r\n\r\n            if (supplier != sender) revert Errors.SCUnauthorizedActor(sender, REASON_NOT_SUPPLIER);\r\n\r\n            // State Check: Must be in 'Created' state to initiate transfer\r\n            if (currentStatus != RawMaterial.Status.Created) {\r\n                 revert Errors.SCInvalidStateForAction(_batchAddress, uint8(currentStatus), ACTION_INITIATE_TRANSFER);\r\n            }\r\n\r\n            // Receiver Validation: Must match the intended manufacturer stored in the batch\r\n            if (intendedManufacturer != _receiver) revert Errors.SCReceiverMismatch(_batchAddress, intendedManufacturer, _receiver);\r\n\r\n            // Role Validation: Receiver must have the MANUFACTURER_ROLE\r\n            if (!_hasRole(MANUFACTURER_ROLE, _receiver)) {\r\n                revert Errors.SCRoleCheckFailed(_receiver, MANUFACTURER_ROLE, REASON_MANUFACTURER_ROLE_MISSING);\r\n            }\r\n\r\n            // External Call: Update batch contract state\r\n            try rm.setInTransit(_transporter) {\r\n                logCode = LOG_RM_TRANSFER;\r\n            } catch (bytes memory lowLevelData) {\r\n                revert Errors.SCExternalCallFailed(_batchAddress, ACTION_INITIATE_TRANSFER, lowLevelData);\r\n            }\r\n\r\n        // --- Medicine Transfer Logic ---\r\n        } else if (_type == TYPE_MEDICINE) {\r\n            Medicine med = Medicine(_batchAddress); // Interface to batch contract\r\n\r\n            // Authorization & State Check: Read current owner and status from batch contract\r\n            address currentOwner;\r\n            Medicine.Status currentStatus;\r\n            try med.getDetails() returns (bytes32, uint, address[] memory, address, uint, uint, Medicine.Status st, address co, address, address, uint) {\r\n                 currentOwner = co;\r\n                 currentStatus = st;\r\n            } catch (bytes memory lowLevelData) {\r\n                 revert Errors.SCExternalCallFailed(_batchAddress, ACTION_GET_MED_DETAILS, lowLevelData);\r\n            }\r\n\r\n            if (currentOwner != sender) revert Errors.SCUnauthorizedActor(sender, REASON_NOT_OWNER);\r\n\r\n            Medicine.Status nextTransitStatus; // The target status enum value\r\n            bytes32 requiredSenderRole; // Role required by the sender for this stage\r\n            bytes32 requiredReceiverRole; // Role required by the receiver for this stage\r\n\r\n            // Determine roles and next state based on current status\r\n            if (currentStatus == Medicine.Status.Created) {\r\n                requiredSenderRole = MANUFACTURER_ROLE;\r\n                // Manufacturer can send to Wholesaler or Distributor\r\n                if (_hasRole(WHOLESALER_ROLE, _receiver)) {\r\n                    requiredReceiverRole = WHOLESALER_ROLE;\r\n                    nextTransitStatus = Medicine.Status.InTransitToW;\r\n                } else if (_hasRole(DISTRIBUTOR_ROLE, _receiver)) {\r\n                    requiredReceiverRole = DISTRIBUTOR_ROLE;\r\n                    nextTransitStatus = Medicine.Status.InTransitToD;\r\n                } else {\r\n                    revert Errors.SCInvalidReceiverRole(_receiver, bytes32(0)); // No specific role, but needs W or D\r\n                }\r\n            } else if (currentStatus == Medicine.Status.AtWholesaler) {\r\n                 requiredSenderRole = WHOLESALER_ROLE;\r\n                 // Wholesaler must send to Distributor\r\n                 if (!_hasRole(DISTRIBUTOR_ROLE, _receiver)) revert Errors.SCRoleCheckFailed(_receiver, DISTRIBUTOR_ROLE, REASON_RECEIVER_ROLE_INVALID);\r\n                 requiredReceiverRole = DISTRIBUTOR_ROLE;\r\n                 nextTransitStatus = Medicine.Status.InTransitToD;\r\n            } else if (currentStatus == Medicine.Status.AtDistributor) {\r\n                  requiredSenderRole = DISTRIBUTOR_ROLE;\r\n                  // Distributor must send to Customer (anyone, CUSTOMER_ROLE always true)\r\n                  if (!_hasRole(CUSTOMER_ROLE, _receiver)) revert Errors.SCRoleCheckFailed(_receiver, CUSTOMER_ROLE, REASON_RECEIVER_ROLE_INVALID); // Should always pass\r\n                  requiredReceiverRole = CUSTOMER_ROLE;\r\n                 nextTransitStatus = Medicine.Status.InTransitToC;\r\n            } else {\r\n                // Cannot initiate transfer from other states (InTransit, AtCustomer, Finalized, Destroyed)\r\n                revert Errors.SCInvalidStateForAction(_batchAddress, uint8(currentStatus), ACTION_INITIATE_TRANSFER);\r\n            }\r\n\r\n            // Check Sender's Role (already checked ownership, now check role for the stage)\r\n             _checkSenderRole(requiredSenderRole);\r\n             // Receiver role was checked above implicitly or explicitly\r\n\r\n            // External Call: Update batch contract state\r\n            try med.setInTransit(nextTransitStatus, _transporter, _receiver) {\r\n                logCode = LOG_MED_TRANSFER;\r\n            } catch (bytes memory lowLevelData) {\r\n                revert Errors.SCExternalCallFailed(_batchAddress, ACTION_INITIATE_TRANSFER, lowLevelData);\r\n            }\r\n        }\r\n        // Else case for unknown type already handled\r\n\r\n        // Logging & Event Emission (Common to both types)\r\n        _logTransaction(_batchAddress, sender, _transporter, logCode, _latitude, _longitude, eventDataHash);\r\n        emit TransferInitiated(_batchAddress, sender, _transporter, _receiver, block.timestamp);\r\n    }\r\n\r\n\r\n    /**\r\n     * @dev Confirms receipt of a package. Called by the receiver.\r\n     * Requires specific roles depending on the batch type and current state.\r\n     */\r\n    function receivePackage(\r\n         address _batchAddress,\r\n         int256 _latitude,\r\n         int256 _longitude\r\n    ) external {\r\n        address sender = msg.sender; // Cache msg.sender (the receiver)\r\n\r\n        // Argument/Type Validation\r\n        if (_batchAddress == address(0)) revert Errors.SCInvalidAddress(CTX_BATCH_ADDRESS);\r\n        bytes32 _type = batchType[_batchAddress];\r\n        if (_type == bytes32(0)) revert Errors.SCBatchTypeUnknownOrActionFailed(_batchAddress, ACTION_RECEIVE_PACKAGE);\r\n\r\n        bytes32 eventDataHash = keccak256(abi.encode(\"RECEIVE\", sender)); // Hash key receipt details\r\n        bytes32 logCode; // To be set based on type\r\n        address previousHolder = address(0); // To store who sent it\r\n        address transporter = address(0); // To store who transported it\r\n\r\n        // --- Raw Material Receipt Logic ---\r\n        if (_type == TYPE_RAW_MATERIAL) {\r\n            RawMaterial rm = RawMaterial(_batchAddress);\r\n\r\n            // Validation: Read expected receiver (intendedManufacturer) and current state from batch\r\n            address intendedManufacturer;\r\n            address currentTransporter;\r\n            RawMaterial.Status currentStatus;\r\n            address supplier; // Needed for event\r\n            try rm.getDetails() returns (bytes32, uint, address s, address iM, uint, RawMaterial.Status st, address ct, uint) {\r\n                 intendedManufacturer = iM;\r\n                 currentStatus = st;\r\n                 currentTransporter = ct;\r\n                 supplier = s;\r\n            } catch (bytes memory lowLevelData) {\r\n                 revert Errors.SCExternalCallFailed(_batchAddress, ACTION_GET_RM_DETAILS, lowLevelData);\r\n            }\r\n\r\n            // Authorization: Caller must be the intended manufacturer\r\n            if (intendedManufacturer != sender) revert Errors.SCReceiverMismatch(_batchAddress, intendedManufacturer, sender);\r\n\r\n            // Role Check: Caller (receiver) must have MANUFACTURER_ROLE\r\n            _checkSenderRole(MANUFACTURER_ROLE);\r\n\r\n            // State Check: Must be InTransit to be received\r\n            if (currentStatus != RawMaterial.Status.InTransit) {\r\n                 revert Errors.SCInvalidStateForAction(_batchAddress, uint8(currentStatus), ACTION_RECEIVE_PACKAGE);\r\n            }\r\n\r\n            // Set log/event details\r\n            previousHolder = supplier; // RM comes from supplier\r\n            transporter = currentTransporter;\r\n\r\n            // External Call: Update batch state\r\n            try rm.setReceived() {\r\n                logCode = LOG_RM_RECEIVED;\r\n            } catch (bytes memory lowLevelData) {\r\n                revert Errors.SCExternalCallFailed(_batchAddress, ACTION_RECEIVE_PACKAGE, lowLevelData);\r\n            }\r\n\r\n        // --- Medicine Receipt Logic ---\r\n        } else if (_type == TYPE_MEDICINE) {\r\n            Medicine med = Medicine(_batchAddress);\r\n\r\n             // Validation: Read expected destination, current owner, transporter, status from batch\r\n            address currentDestination;\r\n            address currentOwner;\r\n            address currentTransporter;\r\n            Medicine.Status currentStatus;\r\n             try med.getDetails() returns (bytes32, uint, address[] memory, address, uint, uint, Medicine.Status st, address co, address ct, address cd, uint) {\r\n                 currentDestination = cd;\r\n                 currentOwner = co;\r\n                 currentTransporter = ct;\r\n                 currentStatus = st;\r\n            } catch (bytes memory lowLevelData) {\r\n                 revert Errors.SCExternalCallFailed(_batchAddress, ACTION_GET_MED_DETAILS, lowLevelData);\r\n            }\r\n\r\n             // Authorization: Caller must be the current destination\r\n             if (currentDestination != sender) revert Errors.SCReceiverMismatch(_batchAddress, currentDestination, sender);\r\n\r\n            // State & Role Mapping\r\n            Medicine.Status nextStatus; // Target status after receipt\r\n            bytes32 requiredReceiverRole; // Role the sender (receiver) must have\r\n\r\n            if (currentStatus == Medicine.Status.InTransitToW) {\r\n                nextStatus = Medicine.Status.AtWholesaler;\r\n                requiredReceiverRole = WHOLESALER_ROLE;\r\n            } else if (currentStatus == Medicine.Status.InTransitToD) {\r\n                nextStatus = Medicine.Status.AtDistributor;\r\n                requiredReceiverRole = DISTRIBUTOR_ROLE;\r\n            } else if (currentStatus == Medicine.Status.InTransitToC) {\r\n                nextStatus = Medicine.Status.AtCustomer;\r\n                requiredReceiverRole = CUSTOMER_ROLE;\r\n            } else {\r\n                // Cannot receive if not in a valid transit state\r\n                revert Errors.SCInvalidStateForAction(_batchAddress, uint8(currentStatus), ACTION_RECEIVE_PACKAGE);\r\n            }\r\n\r\n            // Role Check: Caller (receiver) must have the required role for this stage\r\n            _checkSenderRole(requiredReceiverRole);\r\n\r\n            // Set log/event details\r\n            previousHolder = currentOwner; // Medicine comes from the previous owner\r\n            transporter = currentTransporter;\r\n\r\n            // External Call: Update batch state (transfers ownership internally)\r\n            try med.setReceived(nextStatus, sender) {\r\n                logCode = LOG_MED_RECEIVED;\r\n            } catch (bytes memory lowLevelData) {\r\n                revert Errors.SCExternalCallFailed(_batchAddress, ACTION_RECEIVE_PACKAGE, lowLevelData);\r\n            }\r\n        }\r\n        // Else case for unknown type already handled\r\n\r\n        // Logging & Event Emission (Common to both types)\r\n        // Involved party is the transporter who delivered it\r\n        _logTransaction(_batchAddress, sender, transporter, logCode, _latitude, _longitude, eventDataHash);\r\n        emit PackageReceived(_batchAddress, sender, previousHolder, block.timestamp);\r\n    }\r\n\r\n    /**\r\n     * @dev Marks a Medicine batch as consumed or sold by the final customer.\r\n     * Requires CUSTOMER_ROLE.\r\n     */\r\n    function finalizeMedicineBatch(\r\n        address _batchAddress,\r\n        int256 _latitude,\r\n        int256 _longitude\r\n    ) external {\r\n        // Role Check: Only Customer can finalize\r\n        // Note: _hasRole(CUSTOMER_ROLE, sender) is always true for non-zero address,\r\n        // so this check primarily ensures sender isn't address(0) if needed,\r\n        // but authorization relies on ownership check below.\r\n        // _checkSenderRole(CUSTOMER_ROLE); // Technically correct but redundant due to owner check\r\n\r\n        // Argument/Type Validation\r\n        if (_batchAddress == address(0)) revert Errors.SCInvalidAddress(CTX_BATCH_ADDRESS);\r\n        if (batchType[_batchAddress] != TYPE_MEDICINE) revert Errors.SCBatchTypeUnknownOrActionFailed(_batchAddress, ACTION_FINALIZE_BATCH);\r\n\r\n        Medicine med = Medicine(_batchAddress);\r\n\r\n        // Authorization & State Check: Read owner and status\r\n        address currentOwner;\r\n        Medicine.Status currentStatus;\r\n        try med.getDetails() returns (bytes32, uint, address[] memory, address, uint, uint, Medicine.Status st, address co, address, address, uint) {\r\n             currentOwner = co;\r\n             currentStatus = st;\r\n        } catch (bytes memory lowLevelData) {\r\n             revert Errors.SCExternalCallFailed(_batchAddress, ACTION_GET_MED_DETAILS, lowLevelData);\r\n        }\r\n\r\n        // Caller must be the current owner (implicitly the customer at this stage)\r\n        if (currentOwner != msg.sender) revert Errors.SCUnauthorizedActor(msg.sender, REASON_NOT_OWNER);\r\n\r\n        // Batch must be in 'AtCustomer' state to be finalized\r\n        if (currentStatus != Medicine.Status.AtCustomer) {\r\n             revert Errors.SCInvalidStateForAction(_batchAddress, uint8(currentStatus), ACTION_FINALIZE_BATCH);\r\n        }\r\n\r\n        // External Call: Update batch state\r\n        try med.setConsumedOrSold() {\r\n             // Log and Emit on success\r\n             bytes32 dataHash = keccak256(abi.encode(\"FINALIZED\", msg.sender));\r\n             // Involved party is address(0) as it's a terminal action by the owner\r\n             _logTransaction(_batchAddress, msg.sender, address(0), LOG_MED_FINALIZED, _latitude, _longitude, dataHash);\r\n             emit BatchFinalized(_batchAddress, msg.sender, block.timestamp);\r\n        } catch (bytes memory lowLevelData) {\r\n            revert Errors.SCExternalCallFailed(_batchAddress, ACTION_FINALIZE_BATCH, lowLevelData);\r\n        }\r\n    }\r\n\r\n    /**\r\n     * @dev Marks a batch (RawMaterial or Medicine) as destroyed.\r\n     * Can be called by the Admin or the current owner/supplier of the batch.\r\n     */\r\n    function markBatchDestroyed(\r\n        address _batchAddress,\r\n        bytes32 _reasonCode, // Reason for destruction\r\n        int256 _latitude,\r\n        int256 _longitude\r\n    ) external {\r\n        address sender = msg.sender; // Cache sender\r\n\r\n        // Argument/Type Validation\r\n        if (_batchAddress == address(0)) revert Errors.SCInvalidAddress(CTX_BATCH_ADDRESS);\r\n        bytes32 _type = batchType[_batchAddress];\r\n        if (_type == bytes32(0)) revert Errors.SCBatchTypeUnknownOrActionFailed(_batchAddress, ACTION_DESTROY_BATCH);\r\n\r\n        // Authorization Check: Sender must be Admin OR the appropriate batch owner/supplier\r\n        bool isAdmin = _hasRole(ADMIN_ROLE, sender);\r\n        bool isAuthorized = isAdmin; // Start with admin authorization\r\n\r\n        bytes32 logCode; // To be set based on type\r\n\r\n        // --- Raw Material Destruction ---\r\n        if (_type == TYPE_RAW_MATERIAL) {\r\n            RawMaterial rm = RawMaterial(_batchAddress);\r\n            if (!isAuthorized) {\r\n                // If not admin, check if sender is the supplier\r\n                 address supplier;\r\n                 try rm.getDetails() returns (bytes32, uint, address s, address, uint, RawMaterial.Status, address, uint) { supplier = s; }\r\n                 catch (bytes memory lowLevelData) { revert Errors.SCExternalCallFailed(_batchAddress, ACTION_GET_RM_DETAILS, lowLevelData); }\r\n\r\n                 if (supplier == sender) {\r\n                     isAuthorized = true;\r\n                 } else {\r\n                     revert Errors.SCUnauthorizedActor(sender, REASON_NOT_ADMIN_OR_SUPPLIER);\r\n                 }\r\n            }\r\n            // If authorized, proceed to call setDestroyed\r\n            try rm.setDestroyed(_reasonCode) { logCode = LOG_RM_DESTROYED; }\r\n            catch (bytes memory lowLevelData) { revert Errors.SCExternalCallFailed(_batchAddress, ACTION_DESTROY_BATCH, lowLevelData); }\r\n\r\n        // --- Medicine Destruction ---\r\n        } else if (_type == TYPE_MEDICINE) {\r\n            Medicine med = Medicine(_batchAddress);\r\n            if (!isAuthorized) {\r\n                // If not admin, check if sender is the current owner\r\n                address currentOwner;\r\n                try med.getDetails() returns (bytes32, uint, address[] memory, address, uint, uint, Medicine.Status, address co, address, address, uint) { currentOwner = co; }\r\n                catch (bytes memory lowLevelData) { revert Errors.SCExternalCallFailed(_batchAddress, ACTION_GET_MED_DETAILS, lowLevelData); }\r\n\r\n                if (currentOwner == sender) {\r\n                    isAuthorized = true;\r\n                } else {\r\n                     revert Errors.SCUnauthorizedActor(sender, REASON_NOT_ADMIN_OR_OWNER);\r\n                }\r\n            }\r\n             // If authorized, proceed to call setDestroyed\r\n            try med.setDestroyed(_reasonCode) { logCode = LOG_MED_DESTROYED; }\r\n            catch (bytes memory lowLevelData) { revert Errors.SCExternalCallFailed(_batchAddress, ACTION_DESTROY_BATCH, lowLevelData); }\r\n        }\r\n        // Else case for unknown type already handled\r\n\r\n        // Logging & Event Emission (Common to both types)\r\n        bytes32 dataHash = keccak256(abi.encode(\"DESTROYED\", _reasonCode));\r\n        // Involved party is address(0) as it's a terminal action\r\n        _logTransaction(_batchAddress, sender, address(0), logCode, _latitude, _longitude, dataHash);\r\n        emit BatchDestroyed(_batchAddress, sender, _reasonCode, block.timestamp);\r\n    }\r\n\r\n\r\n    // --- Role Management Wrappers (Public Interface using inherited internal functions) ---\r\n\r\n    /** @dev Grants a role. Requires caller to have the role's admin role (or be owner if admin is ADMIN_ROLE). */\r\n    function grantRole(bytes32 role, address account) external {\r\n        _grantRole(role, account, msg.sender); // Delegate to internal function with sender context\r\n    }\r\n\r\n    /** @dev Revokes a role. Requires caller to have the role's admin role (or be owner if admin is ADMIN_ROLE). */\r\n    function revokeRole(bytes32 role, address account) external {\r\n        _revokeRole(role, account, msg.sender); // Delegate to internal function with sender context\r\n    }\r\n\r\n    /** @dev Sets the admin role for a given role. Requires caller to be the owner. */\r\n    function setRoleAdmin(bytes32 role, bytes32 adminRole) external {\r\n        _setRoleAdmin(role, adminRole, msg.sender); // Delegate to internal function with sender context\r\n    }\r\n\r\n    /** @dev Transfers ownership. Requires caller to be the owner. */\r\n    function transferOwnership(address newOwner) external {\r\n        _transferOwnership(newOwner, msg.sender); // Delegate to internal function with sender context\r\n    }\r\n\r\n\r\n    // --- Public Access Control View Functions (using inherited internal views) ---\r\n\r\n    /** @notice Returns true if `account` has been granted `role`. */\r\n    function hasRole(bytes32 role, address account) external view returns (bool) {\r\n        return _hasRole(role, account); // Delegate to internal view\r\n    }\r\n\r\n    /** @notice Returns the admin role that controls `role`. Defaults to ADMIN_ROLE. */\r\n    function getRoleAdmin(bytes32 role) external view returns (bytes32) {\r\n        return _getRoleAdmin(role); // Delegate to internal view\r\n    }\r\n\r\n\r\n    // --- Internal Logging Function ---\r\n\r\n    /**\r\n     * @dev Internal function to record a transaction log entry for a batch.\r\n     * Calculates the log hash based on previous hash and current data.\r\n     */\r\n    function _logTransaction(\r\n        address _batchAddress,\r\n        address _actor,\r\n        address _involvedParty,\r\n        bytes32 _eventCode,\r\n        int256 _latitude,\r\n        int256 _longitude,\r\n        bytes32 _dataHash\r\n    ) internal {\r\n         bytes32 previousHash = lastLogHashForBatch[_batchAddress]; // Get hash of previous log\r\n         TxnLog[] storage logs = batchLogs[_batchAddress]; // Get storage pointer to logs array\r\n         uint currentIndex = logs.length; // Index for the new log\r\n\r\n         // Calculate hash of the current log entry (use encodePacked for efficiency)\r\n         bytes32 currentLogHash = keccak256(abi.encodePacked(\r\n             currentIndex,\r\n             _actor,\r\n             _involvedParty,\r\n             _eventCode,\r\n             _latitude,\r\n             _longitude,\r\n             block.timestamp,\r\n             _dataHash,\r\n             previousHash // Include previous hash in current hash calculation\r\n         ));\r\n\r\n         // Add the new log entry to the array\r\n         logs.push(TxnLog({\r\n             index: currentIndex,\r\n             actor: _actor,\r\n             involvedParty: _involvedParty,\r\n             eventCode: _eventCode,\r\n             latitude: _latitude,\r\n             longitude: _longitude,\r\n             timestamp: block.timestamp,\r\n             dataHash: _dataHash,\r\n             previousLogHash: previousHash\r\n         }));\r\n\r\n         // Update the last log hash for the batch\r\n         lastLogHashForBatch[_batchAddress] = currentLogHash;\r\n\r\n         // Emit event\r\n         emit LogEntryCreated(_batchAddress, currentIndex, _actor, _eventCode, block.timestamp, currentLogHash);\r\n    }\r\n\r\n\r\n    // --- Internal View Functions for Batch Details (Called by Proxy via staticcall) ---\r\n    // These functions perform external staticcalls to the batch contracts.\r\n\r\n    /** @dev Internal view to get details from a RawMaterial batch contract. */\r\n    function getRawMaterialDetails(address _batchAddress)\r\n        external\r\n        view\r\n        returns (\r\n            bytes32 description, uint quantity, address supplier, address intendedManufacturer,\r\n            uint creationTime, RawMaterial.Status status, address currentTransporter, uint lastUpdateTime\r\n        )\r\n    {\r\n        // Use low-level staticcall with try/catch for robustness against reverts in the target contract\r\n        (bool success, bytes memory data) = _batchAddress.staticcall(\r\n            abi.encodeWithSelector(RawMaterial.getDetails.selector)\r\n        );\r\n\r\n        if(!success) {\r\n             // If the staticcall failed, revert with details\r\n             revert Errors.SCExternalCallFailed(_batchAddress, ACTION_GET_RM_DETAILS, data);\r\n        }\r\n\r\n        // Decode the returned data according to the RawMaterial.getDetails() signature\r\n        (description, quantity, supplier, intendedManufacturer, creationTime, status, currentTransporter, lastUpdateTime) =\r\n             abi.decode(data, (bytes32, uint, address, address, uint, RawMaterial.Status, address, uint));\r\n        // Return values are implicitly returned\r\n    }\r\n\r\n    /** @dev Internal view to get details from a Medicine batch contract. */\r\n    function getMedicineDetails(address _batchAddress)\r\n        external\r\n        view\r\n        returns (\r\n            bytes32 description, uint quantity, address[] memory rawMaterialBatchIds, address manufacturer,\r\n            uint creationTime, uint expiryDate, Medicine.Status status, address currentOwner,\r\n            address currentTransporter, address currentDestination, uint lastUpdateTime\r\n        )\r\n    {\r\n        (bool success, bytes memory data) = _batchAddress.staticcall(\r\n            abi.encodeWithSelector(Medicine.getDetails.selector)\r\n        );\r\n\r\n         if(!success) {\r\n             revert Errors.SCExternalCallFailed(_batchAddress, ACTION_GET_MED_DETAILS, data);\r\n         }\r\n\r\n         // Decode the returned data according to the Medicine.getDetails() signature\r\n         (description, quantity, rawMaterialBatchIds, manufacturer, creationTime, expiryDate, status, currentOwner, currentTransporter, currentDestination, lastUpdateTime) =\r\n              abi.decode(data, (bytes32, uint, address[], address, uint, uint, Medicine.Status, address, address, address, uint));\r\n         // Return values are implicitly returned\r\n     }\r\n\r\n    /** @dev Internal view to get the transaction history for a batch. */\r\n    function getTransactionHistory(address _batchAddress) external view returns (TxnLog[] memory) {\r\n        // Note: Proxy should ideally check if batchType[_batchAddress] != bytes32(0) before calling this\r\n        // to avoid returning an empty array for non-existent batches, although returning empty is harmless.\r\n        return batchLogs[_batchAddress];\r\n    }\r\n\r\n\r\n    // --- Utility Function ---\r\n\r\n     /**\r\n      * @dev Gets the role identifier hash from a role name string.\r\n      * Reverts if the provided role name is not one of the known roles.\r\n      * Useful for off-chain interaction or testing.\r\n      */\r\n     function getRoleIdentifier(string calldata _roleName) external pure returns (bytes32) {\r\n        bytes32 roleHash = keccak256(abi.encodePacked(_roleName));\r\n\r\n        // Explicitly check against *all* known public roles defined in AccessControlWithOwner\r\n        if (roleHash == ADMIN_ROLE ||\r\n            roleHash == SUPPLIER_ROLE ||\r\n            roleHash == TRANSPORTER_ROLE ||\r\n            roleHash == MANUFACTURER_ROLE ||\r\n            roleHash == WHOLESALER_ROLE ||\r\n            roleHash == DISTRIBUTOR_ROLE ||\r\n            roleHash == CUSTOMER_ROLE)\r\n        {\r\n            return roleHash;\r\n        }\r\n\r\n        // If the hash doesn't match any known role, revert.\r\n        revert Errors.SCArgumentError(ARG_UNKNOWN_ROLE_NAME);\r\n    }\r\n\r\n    // Note: The public `owner` variable is inherited directly from AccessControlWithOwner and stored in this contract's context.\r\n    // Note: Public mappings `batchLogs`, `lastLogHashForBatch`, `batchType` have implicit getters generated by the compiler.\r\n}",
  "sourcePath": "C:\\Users\\rabra\\OneDrive\\Desktop\\full stack\\blockchain\\contracts\\logic\\SupplyChainLogic.sol",
  "compiler": {
    "name": "solc",
    "version": "0.8.20+commit.a1b79de6.Emscripten.clang"
  },
  "schemaVersion": "3.4.16",
  "updatedAt": "2025-05-03T20:57:06.262Z",
  "networkType": "ethereum",
  "devdoc": {
    "details": "Implements core supply chain actions and state management. Inherits AccessControlWithOwner.      Designed to be called via delegatecall from SupplyChainProxy.      Initialization is handled by the inherited _initializeOwner function.",
    "kind": "dev",
    "methods": {
      "createMedicine(bytes32,uint256,address[],uint256,int256,int256)": {
        "details": "Creates a new Medicine batch contract. Requires MANUFACTURER_ROLE. Validates inputs, expiry date, and input raw material batches."
      },
      "createRawMaterial(bytes32,uint256,address,int256,int256)": {
        "details": "Creates a new RawMaterial batch contract. Requires SUPPLIER_ROLE. Validates inputs and intended manufacturer role."
      },
      "finalizeMedicineBatch(address,int256,int256)": {
        "details": "Marks a Medicine batch as consumed or sold by the final customer. Requires CUSTOMER_ROLE."
      },
      "getMedicineDetails(address)": {
        "details": "Internal view to get details from a Medicine batch contract. "
      },
      "getRawMaterialDetails(address)": {
        "details": "Internal view to get details from a RawMaterial batch contract. "
      },
      "getRoleIdentifier(string)": {
        "details": "Gets the role identifier hash from a role name string. Reverts if the provided role name is not one of the known roles. Useful for off-chain interaction or testing."
      },
      "getTransactionHistory(address)": {
        "details": "Internal view to get the transaction history for a batch. "
      },
      "grantRole(bytes32,address)": {
        "details": "Grants a role. Requires caller to have the role's admin role (or be owner if admin is ADMIN_ROLE). "
      },
      "initialize(address)": {
        "details": "Public initializer called ONLY ONCE by Proxy constructor via delegatecall.      Delegates *entirely* to the inherited _initializeOwner function.",
        "params": {
          "deployer": "The address to become the initial owner and admin."
        }
      },
      "initiateTransfer(address,address,address,int256,int256)": {
        "details": "Initiates the transfer of a batch (RawMaterial or Medicine) to a new stage. Requires specific roles depending on the batch type and current state."
      },
      "markBatchDestroyed(address,bytes32,int256,int256)": {
        "details": "Marks a batch (RawMaterial or Medicine) as destroyed. Can be called by the Admin or the current owner/supplier of the batch."
      },
      "receivePackage(address,int256,int256)": {
        "details": "Confirms receipt of a package. Called by the receiver. Requires specific roles depending on the batch type and current state."
      },
      "revokeRole(bytes32,address)": {
        "details": "Revokes a role. Requires caller to have the role's admin role (or be owner if admin is ADMIN_ROLE). "
      },
      "setRoleAdmin(bytes32,bytes32)": {
        "details": "Sets the admin role for a given role. Requires caller to be the owner. "
      },
      "transferOwnership(address)": {
        "details": "Transfers ownership. Requires caller to be the owner. "
      }
    },
    "title": "SupplyChainLogic",
    "version": 1
  },
  "userdoc": {
    "kind": "user",
    "methods": {
      "getRoleAdmin(bytes32)": {
        "notice": "Returns the admin role that controls `role`. Defaults to ADMIN_ROLE. "
      },
      "hasRole(bytes32,address)": {
        "notice": "Returns true if `account` has been granted `role`. "
      }
    },
    "version": 1
  }
}