{
  "contractName": "SupplyChainProxy",
  "abi": [
    {
      "inputs": [
        {
          "internalType": "address",
          "name": "logicAddress_",
          "type": "address"
        }
      ],
      "stateMutability": "nonpayable",
      "type": "constructor"
    },
    {
      "anonymous": false,
      "inputs": [
        {
          "indexed": true,
          "internalType": "address",
          "name": "logicAddress",
          "type": "address"
        },
        {
          "indexed": true,
          "internalType": "address",
          "name": "initialOwner",
          "type": "address"
        }
      ],
      "name": "ProxyInitialized",
      "type": "event"
    },
    {
      "stateMutability": "payable",
      "type": "fallback",
      "payable": true
    },
    {
      "inputs": [],
      "name": "logicContractAddress",
      "outputs": [
        {
          "internalType": "address",
          "name": "",
          "type": "address"
        }
      ],
      "stateMutability": "view",
      "type": "function",
      "constant": true
    },
    {
      "inputs": [],
      "name": "owner",
      "outputs": [
        {
          "internalType": "address",
          "name": "",
          "type": "address"
        }
      ],
      "stateMutability": "view",
      "type": "function",
      "constant": true
    },
    {
      "stateMutability": "payable",
      "type": "receive",
      "payable": true
    }
  ],
  "bytecode": "0x608060405234610174576020610713803803809161001c8261018c565b60803912610174576080516001600160a01b0390818116908181036101745761004961006b92151561022b565b600180546001600160a01b0319166001600160a01b0392909216919091179055565b60015460405163189acdbd60e31b60208201908152336024808401919091528252601f19925f9283926001600160a01b0390921691906100ac604482610208565b51915af4906100b9610277565b9115610133576100e1836100ce8451156102b5565b5f54166001600160a01b03163314610301565b6100f2336100ed61035c565b610487565b6001546001600160a01b03166040519033907f1a07f1ddf833f80ab9a8965536315a0736c05a665c75c655ba0b57d9ae234ac25f80a360e090816106338239f35b6040517f50726f78793a20496e697469616c697a652072657665727465640000000000006020820152603a9182018152919061016f9083610208565b61061b565b5f80fd5b634e487b7160e01b5f52604160045260245ffd5b6080601f91909101601f19168101906001600160401b038211908210176101b257604052565b610178565b604081019081106001600160401b038211176101b257604052565b608081019081106001600160401b038211176101b257604052565b606081019081106001600160401b038211176101b257604052565b601f909101601f19168101906001600160401b038211908210176101b257604052565b1561023257565b60405162461bcd60e51b815260206004820152601c60248201527f50726f78793a204c6f6769632061646472657373206973207a65726f000000006044820152606490fd5b3d156102b0573d906001600160401b0382116101b257604051916102a5601f8201601f191660200184610208565b82523d5f602084013e565b606090565b156102bc57565b60405162461bcd60e51b815260206004820152601f60248201527f50726f78793a20496e697469616c697a652072657475726e65642064617461006044820152606490fd5b1561030857565b60405162461bcd60e51b815260206004820152601f60248201527f50726f78793a204f776e6572206d69736d6174636820706f73742d696e6974006044820152606490fd5b90816020910312610174575190565b5f8060018060a01b03600154166040516020810190631d6c8e3f60e21b825260048152610388816101b7565b51915afa61039e610397610277565b8092610551565b60208151036103bd57806020806103ba9351830101910161034d565b90565b60405162461bcd60e51b815260206004820152602660248201527f50726f78793a2041444d494e5f524f4c45206665746368206c656e67746820696044820152651b9d985b1a5960d21b6064820152608490fd5b90816020910312610174575180151581036101745790565b1561043057565b60405162461bcd60e51b815260206004820152602960248201527f50726f78793a204465706c6f796572206c61636b7320696d706c696369742041604482015268444d494e5f524f4c4560b81b6064820152608490fd5b5f918291604051916020830191632474521560e21b8352602484015260018060a01b038091166044840152604483526104bf836101d2565b600154169151915af46104da6104d3610277565b80926105b6565b6020815103610500576104f9816020806104fe94518301019101610411565b610429565b565b60405162461bcd60e51b8152602060048201526024808201527f50726f78793a20686173526f6c652072657475726e206c656e67746820696e76604482015263185b1a5960e21b6064820152608490fd5b156105595750565b604051907f50726f78793a2053746174696363616c6c206661696c65643a0000000000000060208301527f75b238fcfe57c335a03dd53fc4e92497cb515c943e5b3bb6c303dd55b6a0204660398301526039825261016f826101ed565b156105be5750565b604051907f50726f78793a2053746174696363616c6c206661696c65643a0000000000000060208301527f91d1485424b278bc736d5d34907ed48280c7188845bc82b33370da2b4dc1194e60398301526039825261061b826101ed565b805191821561062a5750602001fd5b602081519101fdfe608060405260043610156015575b36607f57607f565b5f803560e01c80638da5cb5b14605c5763bccda8101460335750600d565b34605957806003193601126059576001546040516001600160a01b039091168152602090f35b80fd5b503460595780600319360112605957546001600160a01b03166080908152602090f35b6001545f90819081906001600160a01b0316368280378136915af43d82803e1560a6573d90f35b3d90fdfea2646970667358221220599ff0cf347df71566fe95ee69ea78979141a7b8fd88ec9c7e132c79b27547fa64736f6c63430008140033",
  "immutableReferences": {},
  "source": "// SPDX-License-Identifier: MIT\r\npragma solidity ^0.8.20;\r\n\r\nimport {Errors} from \"./libraries/Errors.sol\";\r\nimport {RawMaterial} from \"./batches/RawMaterial.sol\";\r\nimport {Medicine} from \"./batches/Medicine.sol\";\r\nimport {SupplyChainLogic} from \"./logic/SupplyChainLogic.sol\";\r\n\r\ncontract SupplyChainProxy {\r\n    address public owner;\r\n    address public logicContractAddress;\r\n\r\n    event ProxyInitialized(\r\n        address indexed logicAddress,\r\n        address indexed initialOwner\r\n    );\r\n\r\n    constructor(address logicAddress_) {\r\n        require(logicAddress_ != address(0), \"Proxy: Logic address is zero\");\r\n        logicContractAddress = logicAddress_;\r\n\r\n        address deployer = msg.sender;\r\n        (bool success, bytes memory returnData) = logicContractAddress\r\n            .delegatecall(\r\n                abi.encodeWithSelector(\r\n                    SupplyChainLogic.initialize.selector,\r\n                    deployer\r\n                )\r\n            );\r\n\r\n        if (!success) {\r\n            _forwardRevertData(\r\n                returnData,\r\n                abi.encodePacked(\"Proxy: Initialize reverted\")\r\n            );\r\n        }\r\n        require(returnData.length == 0, \"Proxy: Initialize returned data\");\r\n\r\n        require(owner == deployer, \"Proxy: Owner mismatch post-init\");\r\n        bytes32 adminRoleHash = _fetchAdminRoleHash();\r\n        _verifyDeployerIsAdmin(adminRoleHash, deployer);\r\n\r\n        emit ProxyInitialized(logicContractAddress, deployer);\r\n    }\r\n\r\n    function _fetchAdminRoleHash() internal view returns (bytes32) {\r\n        (bool success, bytes memory returnData) = logicContractAddress\r\n            .staticcall(\r\n                abi.encodeWithSelector(bytes4(keccak256(\"ADMIN_ROLE()\")))\r\n            );\r\n        _checkStaticCallSuccess(success, returnData, keccak256(\"ADMIN_ROLE()\"));\r\n        require(\r\n            returnData.length == 32,\r\n            \"Proxy: ADMIN_ROLE fetch length invalid\"\r\n        );\r\n        return abi.decode(returnData, (bytes32));\r\n    }\r\n\r\n    function _verifyDeployerIsAdmin(\r\n        bytes32 adminRoleHash,\r\n        address deployer_\r\n    ) internal {\r\n        bytes memory callData = abi.encodeWithSelector(\r\n            SupplyChainLogic.hasRole.selector,\r\n            adminRoleHash,\r\n            deployer_\r\n        );\r\n        (bool success, bytes memory returnData) = logicContractAddress\r\n            .delegatecall(callData);\r\n        _checkStaticCallSuccess(\r\n            success,\r\n            returnData,\r\n            keccak256(\"hasRole(bytes32,address)\")\r\n        );\r\n        require(\r\n            returnData.length == 32,\r\n            \"Proxy: hasRole return length invalid\"\r\n        );\r\n        bool isAdmin = abi.decode(returnData, (bool));\r\n        require(isAdmin, \"Proxy: Deployer lacks implicit ADMIN_ROLE\");\r\n    }\r\n\r\n    fallback() external payable {\r\n        _delegate(logicContractAddress);\r\n    }\r\n    receive() external payable {\r\n        _delegate(logicContractAddress);\r\n    }\r\n\r\n\r\n    // Internal Helpers\r\n    function _delegate(address implementation_) internal {\r\n        assembly {\r\n            calldatacopy(0, 0, calldatasize())\r\n            let result := delegatecall(\r\n                gas(),\r\n                implementation_,\r\n                0,\r\n                calldatasize(),\r\n                0,\r\n                0\r\n            )\r\n            returndatacopy(0, 0, returndatasize())\r\n            switch result\r\n            case 0 {\r\n                revert(0, returndatasize())\r\n            }\r\n            default {\r\n                return(0, returndatasize())\r\n            }\r\n        }\r\n    }\r\n\r\n    function _delegateWithValue(\r\n        address implementation_,\r\n        bytes memory callData_\r\n    ) internal returns (bytes memory) {\r\n        (bool success, bytes memory _returnData) = implementation_.delegatecall(\r\n            callData_\r\n        );\r\n        if (!success)\r\n            _forwardRevertData(\r\n                _returnData,\r\n                abi.encodePacked(\"Proxy: Delegatecall failed\")\r\n            );\r\n        return _returnData;\r\n    }\r\n\r\n    function _delegateWithoutValue(\r\n        address implementation_,\r\n        bytes memory callData_\r\n    ) internal {\r\n        (bool success, bytes memory returnData) = implementation_.delegatecall(\r\n            callData_\r\n        );\r\n        if (!success)\r\n            _forwardRevertData(\r\n                returnData,\r\n                abi.encodePacked(\"Proxy: Delegatecall failed\")\r\n            );\r\n        require(returnData.length == 0, \"Proxy: Delegatecall void return\");\r\n    }\r\n\r\n    function _checkStaticCallSuccess(\r\n        bool success_,\r\n        bytes memory returnData_,\r\n        bytes32 context_\r\n    ) internal pure {\r\n        if (!success_)\r\n            _forwardRevertData(\r\n                returnData_,\r\n                abi.encodePacked(\"Proxy: Staticcall failed:\", uint256(context_))\r\n            );\r\n    }\r\n\r\n    function _forwardRevertData(\r\n        bytes memory returnData_,\r\n        bytes memory defaultData_\r\n    ) internal pure {\r\n        if (returnData_.length > 0) {\r\n            assembly {\r\n                revert(add(returnData_, 0x20), mload(returnData_))\r\n            }\r\n        } else {\r\n            assembly {\r\n                revert(add(defaultData_, 0x20), mload(defaultData_))\r\n            }\r\n        }\r\n    }\r\n}\r\n",
  "sourcePath": "C:\\Users\\rabra\\OneDrive\\Desktop\\full stack\\blockchain\\contracts\\SupplyChainProxy.sol",
  "compiler": {
    "name": "solc",
    "version": "0.8.20+commit.a1b79de6.Emscripten.clang"
  },
  "schemaVersion": "3.4.16",
  "updatedAt": "2025-05-03T20:57:06.279Z",
  "networkType": "ethereum",
  "devdoc": {
    "kind": "dev",
    "methods": {},
    "version": 1
  },
  "userdoc": {
    "kind": "user",
    "methods": {},
    "version": 1
  }
}